:10000000021092C204E47878F67873A605AF05EF83
:100010003395E0FE78147C017D011203A4D2042202
:0700230002111E43C4082274
:10002B00020FADAB07AA0675E78075E504EAF5E3A9
:0F003B00AF038FE4AF058FE275E64675E6B92295
:10004B0002121D0202BFE86480F8E933E833601145
:10005B000460F0ED33EC337009E8FCE9FDEAFEEBEC
:10006B00FF220460DED3EB9FEA9EE99DE8C2E78C9A
:10007B00F0C2F795F0400CE8CCF8E9CDF9EACEFAEE
:10008B00EBCFFB12028A85D0F05804700320D5B356
:10009B00E80470075002B2D50202C992D5EC046095
:1000AB00F7E4CCC0E0C398F8603B94186008400DAF
:1000BB00D0E0FB0202A1E4FBFAC9FC8028E830E4A3
:1000CB0006E4C9FBE4CAFCE830E305E4C9CACBFC8F
:1000DB00E854076010F8C3E913F9EA13FAEB13FBC2
:1000EB00EC13FCD8F130F52FC3E49CFCEF9BFFEE37
:1000FB009AFEED99FDD0E0FBEF4E4D4C701222DBDA
:10010B00030202C6EC2CFCEF33FFEE33FEED33FDA6
:10011B00ED30E7EB0202A1EF2BFFEE3AFEED39FDDE
:10012B00D0E0FB50130BBB00030202C9ED13FDEE35
:10013B0013FEEF13FFEC13FC0202A1EC4D6011E870
:10014B00497017ED33EC3304600DE4FCFFFEFD2228
:10015B00E933E8330470F80202BF12028A580460D4
:10016B0009E4CC248150062850090202C928400317
:10017B000202C6C0E0EB4A7044B98006D0E0FB0235
:10018B0002B5EF4E701CBD8008EBFFEAFEE9FD8067
:10019B00EBE98DF0A4FEE5F002022FE9CDF9EAFEC2
:1001AB00EBFFEF89F0A4FCE5F0CE89F0A42EFFE481
:1001BB0035F0CD89F0A42DFEE435F08067EF4E705D
:1001CB0005BD80D780C3EF8BF0A4ACF0EE8BF0A411
:1001DB002CFCE435F0F8EF8AF0A42CE5F038FCE4C5
:1001EB0033CB8DF0A42CFCE5F03BF8EE8AF0A42C7D
:1001FB00FCE5F038F8E433CF89F0A42CFCE5F038BB
:10020B00CF3400CE89F0A42FFFE5F03EFEE433C9D6
:10021B008DF0A42EFEE5F039CD8AF0A42FFFE5F08A
:10022B003EFEE43DFD33D0E0FB50070BBB000F025D
:10023B0002C9EC2CFCEF33FFEE33FEED33FD020273
:10024B00A175F020800E75F010800575F0087D000B
:10025B007E007F003392D530D503120426EC334059
:10026B0010EF33FFEE33FEED33FDEC33FCD5F0ED49
:10027B0022E5F0247EA2D513CC92E7CDCEFF22E966
:10028B00D2E7C933E833F892D5EDD2E7CD33EC336F
:10029B00FC5002B2D522EC30E7100FBF000C0EBEA3
:1002AB0000080DBD00040BEB6014A2D5EB13FCEDA5
:1002BB0092E7FD2274FFFCFDFEFF22E480F8A2D53D
:1002CB0074FF13FC7D80E480EFE709F608DFFA800A
:1002DB0046E709F208DFFA803E88828C83E709F053
:1002EB00A3DFFA8032E309F608DFFA8078E309F23C
:1002FB0008DFFA807088828C83E309F0A3DFFA8031
:10030B006489828A83E0A3F608DFFA805889828A9F
:10031B0083E0A3F208DFFA804C80D280FA80C6809B
:10032B00D4806980F28033801080A680EA809A8026
:10033B00A880DA80E280CA803389828A83ECFAE46F
:10034B0093A3C8C582C8CCC583CCF0A3C8C582C84B
:10035B00CCC583CCDFE9DEE7800D89828A83E49309
:10036B00A3F608DFF9ECFAA9F0EDFB2289828A8368
:10037B00ECFAE0A3C8C582C8CCC583CCF0A3C8C532
:10038B0082C8CCC583CCDFEADEE880DB89828A8336
:10039B00E493A3F208DFF980CC88F0EF60010E4EF6
:1003AB0060C388F0ED2402B4040050B9F582EB244D
:1003BB0002B4040050AF232345822390032473BB64
:1003CB00010689828A83E0225002E722BBFE02E308
:1003DB002289828A83E49322BB010CE58229F58270
:1003EB00E5833AF583E0225006E92582F8E622BB45
:1003FB00FE06E92582F8E222E58229F582E5833AB9
:10040B00F583E49322A3F8E0C5F025F0F0E582151F
:10041B008270021583E0C838F0E822C3E49FFFE442
:10042B009EFEE49DFDE49CFC22E6FB08E6F908E653
:10043B00FA08E6CBF822ECF0A3EDF0A3EEF0A3EF75
:10044B00F022D083D082E493F608740193F60874FB
:10045B000293F608740393F6740473A8828583F0F1
:10046B00D083D08212047D12047D12047D12047D90
:10047B00E473E493A3C583C5F0C583C8C582C8F0F4
:10048B00A3C583C5F0C583C8C582C822EF4E6012D1
:10049B00EF60010EEDBB010B89828A83F0A3DFFCB9
:1004AB00DEFA2289F05007F709DFFCA9F022BBFE28
:1004BB00FCF309DFFCA9F02290013FEBF0A3EAF07B
:1004CB00A3E9F0E47827F608F608F608F608F6082C
:1004DB00F608F608F608F608F6EF6402782C7601B3
:1004EB0090013FE0FBA3E0FAA3E0F9A3E0FD7C0061
:1004FB001211A5EF3395E0FE7827F608EFF64E7054
:10050B000302076E90013FE0FBA3E0FAA3E0F912B0
:10051B0003CA782C66600302076E187601E606F5AF
:10052B00827583001203E3782DF6E47827F608F63C
:10053B00782DE624FD601E1470030205F3240324BA
:10054B00FB4003020772700302068624F670030257
:10055B00070302076690013FE0FBA3E0FAA3E0F973
:10056B00782BE606F5827583001203E3C31378300C
:10057B00F6E47827F608F67830E6FFC37828E69F8E
:10058B0018E69400400302077290013FE0FBA3E0E2
:10059B00FAA3E0F9782BE606F5827583001203E3E4
:1005AB00900143F0782BE606F5827583001203E386
:1005BB00900144F0900143E0FCA3E0FD7928E7783B
:1005CB000926FF19E71836FEEF25E0FFEE33FE7420
:1005DB00642FF58274003EF583ECF0A3EDF07828E0
:1005EB0006E618709206808F90013FE0FBA3E0FABD
:1005FB00A3E0F9782BE606F5827583001203E3C3BB
:10060B00137830F6E47827F608F67830E6FFC378EF
:10061B0028E69F18E69400400302077290013FE022
:10062B00FBA3E0FAA3E0F9782BE606F582758300CD
:10063B001203E3900143F0782BE606F582758300F5
:10064B001203E3900144F0900143E0FCA3E0FD7939
:10065B0028E7780926FF19E71836FEEF25E0FFEEAD
:10066B0033FE74002FF58274003EF583ECF0A3ED9E
:10067B00F0782806E618709206808F90013FE0FB19
:10068B00A3E0FAA3E0F9782BE606F5827583001256
:10069B0003E3900143F0782BE606F5827583001295
:1006AB0003E3900144F0900143E0FEA3E0782EA613
:1006BB000608F6782BE606F5827583001203E390A5
:1006CB000143F0782BE606F5827583001203E39065
:1006DB000144F0900143E0A3E07830F6E6FD18E624
:1006EB0025E0FF18E633FE74642FF58274003EF5A7
:1006FB0083E4F0A3EDF0806F90013FE0FBA3E0FA01
:10070B00A3E0F9782BE606F5827583001203E390DC
:10071B000143F0782BE606F5827583001203E39014
:10072B000144F0900143E0FEA3E0782EA60608F604
:10073B00782BE606F5827583001203E3900143F0F4
:10074B00782BE606F5827583001203E3900144F0E3
:10075B00900143E0A3E07830F6800CE47827F608AC
:10076B00F68004782B76FF782BE6FF22E4FBFA1257
:10077B0014851214117FF412128412144EE4FF121A
:10078B001461D2AFE4780AF6780BF6FD7F011213F1
:10079B00ADE4FD7F021213AD7F98121371E4FAFBE7
:1007AB00A903E925E025E02440F812044D3F800021
:1007BB0000745829F8E4F60BBB00010AEB64044AF9
:1007CB0070DEC204C203C205900160120466000011
:1007DB000000900164120466000000009001681292
:1007EB0004660000000090016C120466000000001B
:1007FB00E4900170F0A3F07821760108760408F6F6
:10080B0008F608F608760A12149120050302091E51
:10081B00C2057B017A0079C87875E6900142F07FBA
:10082B00011204C3900000E0FFA3E0900172CFF02F
:10083B00A3EFF0900066E0FEA3E0FF900002EEF065
:10084B00A3EFF0900170EEF0A3EFF0900004E0FF47
:10085B00A3E090013ACFF0A3EFF0900006E0FFA3E6
:10086B00E090013CCFF0A3EFF090013AE0FCA3E065
:10087B00FDA3E0FEA3E0FF9001601204419000088D
:10088B00E0FFA3E090013ACFF0A3EFF090000AE075
:10089B00FFA3E090013CCFF0A3EFF090013AE0FC16
:1008AB00A3E0FDA3E0FEA3E0FF90016412044190DE
:1008BB00000CE0FFA3E090013ACFF0A3EFF0900023
:1008CB000EE0FFA3E090013CCFF0A3EFF090013AD4
:1008DB00E0FCA3E0FDA3E0FEA3E0FF90016812049F
:1008EB0041900010E0FFA3E090013ACFF0A3EFF0AE
:1008FB00900012E0FFA3E090013CCFF0A3EFF0904B
:10090B00013AE0FCA3E0FDA3E0FEA3E0FF90016C45
:10091B00120441300264C202783FE614601F146077
:10092B003114604324037052E4FF1214361213E89F
:10093B007850A60608A607783F7601803D7F011206
:10094B0014361213E87852A60608A607783F7602EB
:10095B0080287F021214361213E87854A60608A6D4
:10096B0007783F760380137F031214361213E8784F
:10097B0056A60608A607E4783FF6300055C20012CB
:10098B000A0F900066E0FEA3E0FF900170EEF0A36B
:10099B00EFF0121335900170E0FFA3E0900000CF51
:1009AB00F0A3EFF0780A06E6FF3395E0FEC3EF9471
:1009BB000AEE648094804005E4F6FD8010780AE628
:1009CB00FF3395E0FEEF64054E70077D017F01124A
:1009DB0013AD300129C201783F7C017D017B007A88
:1009EB000079217E007F061203A47F01120BCA78C7
:1009FB000C06E6C3940A748094804002E4F643E14B
:100A0B0010020815E4C3785196FF74041896FEEF94
:100A1B007802CEC313CE13D8F9FFC394F9EE6480DA
:100A2B00948040047E007FF9EF25E0FFEE33FE74E7
:100A3B009B2FF58274163EF583E493FC740193FDB2
:100A4B00EC120251900160120441C3E4785396FFFB
:100A5B0074041896FEEF7802CEC313CE13D8F9FFA9
:100A6B00C394F9EE6480948040047E007FF9EF25F7
:100A7B00E0FFEE33FE749B2FF58274163EF583E494
:100A8B0093FC740193FDEC1202519001641204412A
:100A9B007854E6FC08E6FDE412025178481204345F
:100AAB00120146C004C005C006C007785AE6FC1206
:100ABB000256D003D002D001D0001200559001682D
:100ACB001204417856E6FC08E6FDE4120251784C1C
:100ADB00120434120146C004C005C006C007785B7F
:100AEB00E6FC120256D003D002D001D00012005502
:100AFB0090016C120441900160E0FCA3E0FDA3E0C7
:100B0B00FEA3E0FF90013E12044190013EE0FFA3E3
:100B1B00E0900004CFF0A3EFF0900140E0FFA3E0E2
:100B2B00900006CFF0A3EFF0900164E0FCA3E0FD92
:100B3B00A3E0FEA3E0FF90013E12044190013EE0D2
:100B4B00FFA3E0900008CFF0A3EFF0900140E0FF8F
:100B5B00A3E090000ACFF0A3EFF0900168E0FCA3B4
:100B6B00E0FDA3E0FEA3E0FF90013E1204419001E3
:100B7B003EE0FFA3E090000CCFF0A3EFF09001401C
:100B8B00E0FFA3E090000ECFF0A3EFF090016CE03C
:100B9B00FCA3E0FDA3E0FEA3E0FF90013E120441A5
:100BAB0090013EE0FFA3E0900010CFF0A3EFF09098
:100BBB000140E0FFA3E0900012CFF0A3EFF02290F2
:100BCB00013EEFF0E4900145F0A3F078497C017D04
:100BDB00017BFF7A18798FFE7F141203A4E4900136
:100BEB0045F0A3F090013FE0FF900145E475F00163
:100BFB00120410FC744925F0F58274013CF583EF67
:100C0B00F0900140E0FF900145E475F001120410F3
:100C1B00FC744925F0F58274013CF583EFF09001EB
:100C2B003EE06402700F900141E0FEA3E0FF780804
:100C3B00A60608A607900141E0FFA3E0900147CF6D
:100C4B00F0A3EFF0900147E0FF900145E475F00150
:100C5B00120410FC744925F0F58274013CF583EF06
:100C6B00F0900148E0FF900145E475F0011204108B
:100C7B00FC744925F0F58274013CF583EFF090018B
:100C8B0043E0FFA3E0900147CFF0A3EFF0900147C3
:100C9B00E0FF900145E475F001120410FC74492546
:100CAB00F0F58274013CF583EFF0900148E0FF9082
:100CBB000145E475F001120410FC744925F0F5822E
:100CCB0074013CF583EFF07B017A01794990014582
:100CDB00E0FCA3E0FD1212E1900147EEF0A3EFF070
:100CEB00900147E0FF900145E475F001120410FC00
:100CFB00744925F0F58274013CF583EFF0900148BF
:100D0B00E0FF900145E475F001120410FC744925D5
:100D1B00F0F58274013CF583EFF090013EE0640244
:100D2B006032900145A3E07873F67E007F267D004C
:100D3B007B017A0179141204977873E6FF7E0078B1
:100D4B00147C017D017B017A0179491203A4E478BB
:100D5B0078F6D204900145E0FEA3E0FF22900174E7
:100D6B00EFF0E47868F608F608F608F608F608F6E9
:100D7B0008F608F608F608F608F6EF900178600B0F
:100D8B00E0FEA3E0FF786AA606800DE0FEA3E02458
:100D9B00FCFFEE34FF786AF608A6071203CA786CDC
:100DAB00F6740129F9E43AFAE4786FF608F67868F4
:100DBB00F6087601786AE6FE08E6FF7868E6FC0836
:100DCB00E6C39FEE6480F8EC648098506B1203CA04
:100DDB00FF786CF6740129F9E43AFAEFC3943A40C0
:100DEB0007E624C908F68007786CE624D008F612CB
:100DFB0003CAFF786CF6740129F9E43AFAEFC3944D
:100E0B003A4005E624C98005786CE624D0786EF666
:100E1B00786DE675F010A4FF08E67C002FFFEC352B
:100E2B00F0FE7870EF26F618EE36F6786974022627
:100E3B00F618E436F6020DBF786F08E6F40408F6F0
:100E4B00900174E06009E4786CF67871E6805612D4
:100E5B0003CAFF786CF6740129F9E43AFAEFC394EC
:100E6B003A4007E624C908F68007786CE624D008D8
:100E7B00F61203CAFF786CF6EFC3943A4005E624EA
:100E8B00C98005786CE624D0786EF6786DE6C4548C
:100E9B00F0FF08E62FFF7872F618E6B50706786CB8
:100EAB0076018004E4786CF6786CE6FF22010C0086
:100EBB00C102C100C101016200015E0001610002BB
:100ECB00650000025C000002630000016700025F26
:100EDB000000C104C103C105017400017600017B50
:100EEB00000178000173006026011400000000006F
:100EFB0000000000000000000000000000000000E7
:100F0B0000000000000000000000000000000000D6
:100F1B000002790000017500017700017C0060265A
:100F2B0000EE0000000000000000000000000000C8
:100F3B0000000000000000000000000000000000A6
:100F4B000000000000000000602600C80000000048
:100F5B000000000000000000000000000000000086
:100F6B000000000000000000000000000000000076
:100F7B000000010A00010B0041017A00013F00084B
:100F8B0050000000000000000010403F80000000F7
:100F9B0000000000000000000000000458000000EA
:100FAB000000C0E0C0F0C083C082C0D075D0107804
:100FBB00387600087600C2CF786006E61870010616
:100FCB0030043C7867067967E7C3787496403078CD
:100FDB006776007878E6FF787396502174142FF5B6
:100FEB0082E43401F583E07838F608A6AC75AC00E2
:100FFB0018E6F59908E6F5AC7878068002C204305D
:10100B000330787A06E618700106D3787AE69406F0
:10101B0018E69400401CC2037877E67875F6FF7EDD
:10102B000078C87C007D017B017A0079EE1203A465
:10103B00D205786206E6C3940A74809480403D76AC
:10104B00007866E61618700116D202785E06E6C3C3
:10105B00940A748094804024760018E61618700168
:10106B0016D200786106E6C3940A74809480400C13
:10107B0076007864E61618700116D201D0D0D082B3
:10108B00D083D0F0D0E032787FE4F6D8FD75817C48
:10109B000210D9020777E493A3F8E493A34003F675
:1010AB008001F208DFF48029E493A3F85407240CA1
:1010BB00C8C333C4540F4420C8834004F456800182
:1010CB0046F6DFE4800B0102040810204080900EEE
:1010DB00B8E47E019360BCA3FF543F30E509541F75
:1010EB00FEE493A360010ECF54C025E060A840B886
:1010FB00E493A3FAE493A3F8E493A3C8C582C8CA04
:10110B00C583CAF0A3C8C582C8CAC583CADFE9DED6
:10111B00E780BEC0E0C0F0C083C082C0D075D000F5
:10112B00C000C001C002C003C004C005C006C00798
:10113B00783A7600087600309840C298A6AC75AC29
:10114B000018A69908E6F5AC2003157E007F267DD6
:10115B00007B017A0079EE12049778777600D20340
:10116B00783AE6FF7877E60624EEF582E43400F56C
:10117B0083EFF078797600087600309902C299D027
:10118B0007D006D005D004D003D002D001D000D0B8
:10119B00D0D082D083D0F0D0E032900145EBF0A3D9
:1011AB00EAF0A3E9F0A3ECF0A3EDF0900145E0FB2E
:1011BB00A3E0FAA3E0F9ED24FEFDEC34FFFC1212E0
:1011CB00E17831A60608A607900145E0FBA3E0FAFB
:1011DB00A3E0F9A3E0FCA3E0FD24FEF58274FF3C41
:1011EB00F5831203E3FE74FF2DF58274FF3CF58348
:1011FB001203E37C002400FFEC3EFE7833F608EF8D
:10120B00F67832E6B5070818E6B506037F01227FAC
:10121B000022C0E0C0D075D000C000C004C005C023
:10122B0006C007783C760008760008760053C4F7B2
:10123B00E5C65403FEADC57C00E42D18F6EC3E1854
:10124B00F6E6FE08E6FF783FE625E02450F8A60612
:10125B0008A607783F06E6C3940474809480400286
:10126B00760053C4F8783FE642C4D007D006D005C9
:10127B00D004D000D0D0D0E03243892075A3008FAA
:10128B008B8F8D759850438780EFFD7C00D394A096
:10129B007480948050067874760C8035D3ED94E886
:1012AB00EC648094805006787476068024D3ED9499
:1012BB00F4EC648094805006787476038013D3ED3D
:1012CB0094F8EC64809480787450047602800276F3
:1012DB0001D28ED2AC2290015DEBF0A3EAF0A3E930
:1012EB00F0783576FF0876FFED1DAE0470011C4ECD
:1012FB00602E90015DE0FBA3E475F001120410A9D0
:10130B00F0FA1203CA7835667937F77837E6FF902B
:10131B00149B9318667935F7EF90159B93F680C85D
:10132B007835E6FE08E6FDEDFF22EF30E004D296BD
:10133B008002C296EF30E104D2978002C297EF3061
:10134B00E204D2A28002C2A2EF30E304D2A3800255
:10135B00C2A3EF30E404D2A48002C2A4EF30E503B1
:10136B00D2A622C2A622EF30E004D2E98002C2E963
:10137B00EF30E104D2E88002C2E8EF30E204D2B5EC
:10138B008002C2B5EF30E304D2B48002C2B4EF30B6
:10139B00E404D2B38002C2B3EF30E703D2B222C26D
:1013AB00B222EFFB3395E0FAEB64014A7016EDF5D0
:1013BB00823395E0F583E582640145837004C2F8BE
:1013CB008002D2F8EB64024A7012AF05EF3395E05E
:1013DB00FEEF64014E7003C2F922D2F922E47827A2
:1013EB00F608F643C408E5C430E4FBE5C65403FE37
:1013FB00ADC57C00E42D7828F6EC3E18F653C4EF0F
:10140B00E6FE08E6FF22E4F5C8F5C94387809001A4
:10141B003E74F8F0A374CDF090013EE0F5CBA3E061
:10142B00F5CAC2CFD2CAD2BDD2AD2253C4F8EF4255
:10143B00C47C037DE8ED1DAE0470011C4E70F643B9
:10144B00C4082275B4404391C043955C75AC01430D
:10145B00B503E4F5AC2275920F75C370E4F5BB755B
:10146B00C480EF600343AD0222E4785FF608F6C355
:10147B007860E69F18E69E40F62243C7D07D547FE6
:10148B00407E0002002E43970175E1D743E12022F5
:10149B0000C1814001C0804101C0804100C1814039
:1014AB0001C0804100C1814000C1814001C0804129
:1014BB0001C0804100C1814000C1814001C0804119
:1014CB0000C1814001C0804101C0804100C1814009
:1014DB0001C0804100C1814000C1814001C08041F9
:1014EB0000C1814001C0804101C0804100C18140E9
:1014FB0000C1814001C0804101C0804100C18140D9
:10150B0001C0804100C1814000C1814001C08041C8
:10151B0001C0804100C1814000C1814001C08041B8
:10152B0000C1814001C0804101C0804100C18140A8
:10153B0000C1814001C0804101C0804100C1814098
:10154B0001C0804100C1814000C1814001C0804188
:10155B0000C1814001C0804101C0804100C1814078
:10156B0001C0804100C1814000C1814001C0804168
:10157B0001C0804100C1814000C1814001C0804158
:10158B0000C1814001C0804101C0804100C1814048
:10159B0000C0C101C30302C2C60607C705C5C40408
:1015AB00CC0C0DCD0FCFCE0E0ACACB0BC90908C878
:1015BB00D81819D91BDBDA1A1EDEDF1FDD1D1CDC68
:1015CB0014D4D515D71716D6D21213D311D1D010D8
:1015DB00F03031F133F3F23236F6F737F53534F4C8
:1015EB003CFCFD3DFF3F3EFEFA3A3BFB39F9F83838
:1015FB0028E8E929EB2B2AEAEE2E2FEF2DEDEC2C28
:10160B00E42425E527E7E62622E2E323E12120E097
:10161B00A06061A163A3A26266A6A767A56564A487
:10162B006CACAD6DAF6F6EAEAA6A6BAB69A9A868F7
:10163B0078B8B979BB7B7ABABE7E7FBF7DBDBC7CE7
:10164B00B47475B577B7B67672B2B373B17170B057
:10165B005090915193535292965657975595945447
:10166B009C5C5D9D5F9F9E5E5A9A9B5B99595898B7
:10167B00884849894B8B8A4A4E8E8F4F8D4D4C8CA7
:10168B004484854587474686824243834181804017
:10169B00FFFBFFFCFFFCFFFDFFFDFFFEFFFEFFFF5F
:1016AB00FFFF000000000001000200020003000326
:1016BB0000040004000500060007000700080008EE
:1016CB0000090009000A000A000B000C000C000DB9
:1016DB00000D000E000E000F000F00100010001187
:1016EB00001100120012001200130013001400145A
:1016FB00001500150016001600160017001700182D
:10170B000018001800190019001A001A001B001B02
:10171B00001C001C001C001D001D001D001E001ED7
:10172B00001F001F001F00200020002100210021AE
:10173B000022002200230023002300240024002584
:10174B00002500250026002600270027002800285A
:10175B00002800290029002A002A002A002B002B30
:10176B00002B002C002C002C002D002D002E002E09
:10177B00002E002F002F00300030003000310031E0
:10178B0000320032003200330033003300340034B7
:10179B00003500350036003600360037003700388C
:1017AB00003800390039003A003A003B003B003C5E
:1017BB00003C003C003D003D003E003E003F003F32
:1017CB0000400040004100410042004300440044FF
:1017DB0000450045004600460047004700480048CA
:1017EB000049004A004A004B004B004C004C004D96
:1017FB00004E004F00500050005100520053005358
:10180B00005400550056005700580059005A005B11
:10181B00005C005D005E005F0060006100620063C1
:10182B00006400650066006700680069006A006B71
:10183B00006C006D006E006F007000710072007321
:10184B00007400750076007700780079007A007BD1
:10185B00007C007D007E007F008000810082008381
:10186B00008400850086008700880089008A008B31
:10187B00008C008D008E008F0090009100920093E1
:10188B000094009500000000000000000000000024
:08189B00000000000000000045
:00000001FF
