:100000000219B1C204E47878F67873A605AF05EF5B
:100010003395E0FE78FE7C017D01120855D2042262
:07002300021A3D43C408224C
:10002B00021710AB07AA06EAF5E3EBF5E4AF058F71
:0E003B00E275E50275E78075E64675E6B922C6
:10004B00021B3C900006EFF0A3EBF0A3EAF0A3E950
:10005B00F0E47827F608F608F608F608F608F6082E
:10006B00F608F608F608F6780D7C007D017BFF7A22
:10007B0023791DFE7F28120855900006E064027854
:10008B002D7601900007E0FBA3E0FAA3E0F9A3E0D3
:10009B00FD7C00121AC4EF3395E0FE7827F608EFCB
:1000AB00F64E70030204F6900007E0FBA3E0FAA300
:1000BB00E0F912087B782D6660030204F6FE7F28B8
:1000CB00FD7B017A00790D120960782B7601782D72
:1000DB00E690000DF0900007E0FBA3E0FAA3E0F937
:1000EB00782BE606F582758300120894782CF6E6D9
:1000FB00FF90000EF018E606F58275830012089447
:10010B0090000BF0782BE606F582758300120894AD
:10011B0090000CF090000BE0FCA3E0FD782EECF6C9
:10012B0008EDF67808A60408F6782BE606F5827536
:10013B00830012089490000BF0782BE606F582757D
:10014B00830012089490000CF090000BE0A3E07871
:10015B0030F678297600087602EF24FD601E1470C5
:10016B0003020227240324FB400302046C700302E6
:10017B0002C724F670030203600204637830E6259D
:10018B00E0FF78290806E618860470010614240D92
:10019B00F58274003CF583EFF0E47827F608F678E7
:1001AB0030E6FF7827E6FC08E6FDC39FEC940040A1
:1001BB000302046CED782F26FFEC1836FEEF25E0DA
:1001CB00FFEE33FE744E2FF58274013EF583E0FF94
:1001DB00A3E090000BCFF0A3EFF090000BE0FF78C3
:1001EB00290806E618860470010614240DF582749E
:1001FB00003CF583EFF090000CE0FF78290806E651
:10020B0018860470010614240DF58274003CF583E6
:10021B00EFF0782806E61870860680837830E6259E
:10022B00E0FF78290806E618860470010614240DF1
:10023B00F58274003CF583EFF0E47827F608F67846
:10024B0030E6FF7827E6FC08E6FDC39FEC94004000
:10025B000302046CED782F26FFEC1836FEEF25E039
:10026B00FFEE33FE74EA2FF58274003EF583E0FF58
:10027B00A3E090000BCFF0A3EFF090000BE0FF7822
:10028B00290806E618860470010614240DF58274FD
:10029B00003CF583EFF090000CE0FF78290806E6B0
:1002AB0018860470010614240DF58274003CF58346
:1002BB00EFF0782806E61870860680837830E6FD26
:1002CB007C0018E625E0FF18E633FE744E2FF5820E
:1002DB0074013EF583ECF0A3EDF0E6FF08E6900029
:1002EB000BCFF0A3EFF090000BE0FF78290806E6A8
:1002FB0018860270010614240DF58274003AF583FA
:10030B00EFF090000CE0FF78290806E618860270E3
:10031B00010614240DF58274003AF583EFF090007A
:10032B000BECF0A3EDF090000BE0FF78290806E64C
:10033B0018860470010614240DF58274003CF583B5
:10034B00EFF090000CE0FF78290806E618860470A1
:10035B000106020455782B06E47827F608F6783068
:10036B00E6FFC37828E69F18E69400505F900007DD
:10037B00E0FBA3E0FAA3E0F9782BE606F5827583A0
:10038B000012089490000BF0782BE606F58275832B
:10039B000012089490000CF090000BE0FCA3E0FD21
:1003AB007928E7782F26FF19E71836FEEF25E0FFAF
:1003BB00EE33FE744E2FF58274013EF583ECF0A301
:1003CB00EDF0782806E6187095068092782EE6FFF9
:1003DB0008E690000BCFF0A3EFF090000BE0FF7856
:1003EB00290806E618860470010614240DF582749C
:1003FB00003CF583EFF090000CE0FF78290806E64F
:10040B0018860470010614240DF58274003CF583E4
:10041B00EFF07830E6FF90000BE4F0A3EFF09000E4
:10042B000BE0FF78290806E61886047001061424F1
:10043B000DF58274003CF583EFF090000CE0FF7833
:10044B00290806E618860470010614240DF582743B
:10045B00003CF583EFF08009782CE6248090000EA9
:10046B00F07B017A00790D7829E6FC08E6FD121C79
:10047B000090000BEEF0A3EFF090000BE0FF78295B
:10048B000806E618860470010614240DF582740024
:10049B003CF583EFF090000CE0FF78290806E61896
:1004AB00860470010614240DF58274003CF583EF6D
:1004BB00F0900006E064026036782AE67873F67EE8
:1004CB00007F267D007B017A0179FE12096078732B
:1004DB00E6FF7E0078FE7C017D017B017A00790DC1
:1004EB00120855E47878F6D2048004782B76FF78DE
:1004FB002BE6FF22020770E86480F8E933E83360EB
:10050B00110460F0ED33EC337009E8FCE9FDEAFE11
:10051B00EBFF220460DED3EB9FEA9EE99DE8C2E786
:10052B008CF0C2F795F0400CE8CCF8E9CDF9EACEA7
:10053B00FAEBCFFB12073B85D0F05804700320D5A4
:10054B00B3E80470075002B2D502077A92D5EC04D7
:10055B0060F7E4CCC0E0C398F8603B9418600840A7
:10056B000DD0E0FB020752E4FBFAC9FC8028E8300F
:10057B00E406E4C9FBE4CAFCE830E305E4C9CACBF2
:10058B00FCE854076010F8C3E913F9EA13FAEB130C
:10059B00FBEC13FCD8F130F52FC3E49CFCEF9BFF75
:1005AB00EE9AFEED99FDD0E0FBEF4E4D4C70122212
:1005BB00DB03020777EC2CFCEF33FFEE33FEED335E
:1005CB00FDED30E7EB020752EF2BFFEE3AFEED3974
:1005DB00FDD0E0FB50130BBB000302077AED13FDBC
:1005EB00EE13FEEF13FFEC13FC020752EC4D601100
:1005FB00E8497017ED33EC3304600DE4FCFFFEFDAE
:10060B0022E933E8330470F802077012073B5804F1
:10061B006009E4CC2481500628500902077A28404F
:10062B0003020777C0E0EB4A7044B98006D0E0FBC9
:10063B00020766EF4E701CBD8008EBFFEAFEE9FD7A
:10064B0080EBE98DF0A4FEE5F00206E0E9CDF9EAD6
:10065B00FEEBFFEF89F0A4FCE5F0CE89F0A42EFFB2
:10066B00E435F0CD89F0A42DFEE435F08067EF4E34
:10067B007005BD80D780C3EF8BF0A4ACF0EE8BF090
:10068B00A42CFCE435F0F8EF8AF0A42CE5F038FC50
:10069B00E433CB8DF0A42CFCE5F03BF8EE8AF0A410
:1006AB002CFCE5F038F8E433CF89F0A42CFCE5F012
:1006BB0038CF3400CE89F0A42FFFE5F03EFEE433B3
:1006CB00C98DF0A42EFEE5F039CD8AF0A42FFFE5FD
:1006DB00F03EFEE43DFD33D0E0FB50070BBB000FBB
:1006EB0002077AEC2CFCEF33FFEE33FEED33FD0209
:1006FB00075275F020800E75F010800575F0087D9F
:10070B00007E007F003392D530D5031208D7EC332F
:10071B004010EF33FFEE33FEED33FDEC33FCD5F041
:10072B00ED22E5F0247EA2D513CC92E7CDCEFF22AD
:10073B00E9D2E7C933E833F892D5EDD2E7CD33EC04
:10074B0033FC5002B2D522EC30E7100FBF000C0E79
:10075B00BE00080DBD00040BEB6014A2D5EB13FC1F
:10076B00ED92E7FD2274FFFCFDFEFF22E480F8A270
:10077B00D574FF13FC7D80E480EFE709F608DFFA00
:10078B008046E709F208DFFA803E88828C83E7090E
:10079B00F0A3DFFA8032E309F608DFFA8078E30989
:1007AB00F208DFFA807088828C83E309F0A3DFFA0A
:1007BB00806489828A83E0A3F608DFFA80588982F5
:1007CB008A83E0A3F208DFFA804C80D280FA80C6DD
:1007DB0080D4806980F28033801080A680EA809A72
:1007EB0080A880DA80E280CA803389828A83ECFA1F
:1007FB00E493A3C8C582C8CCC583CCF0A3C8C5827B
:10080B00C8CCC583CCDFE9DEE7800D89828A83E41F
:10081B0093A3F608DFF9ECFAA9F0EDFB2289828AA3
:10082B0083ECFAE0A3C8C582C8CCC583CCF0A3C8BF
:10083B00C582C8CCC583CCDFEADEE880DB89828A3F
:10084B0083E493A3F208DFF980CC88F0EF60010E0C
:10085B004E60C388F0ED2402B4040050B9F582EB6E
:10086B002402B4040050AF23234582239007D57391
:10087B00BB010689828A83E0225002E722BBFE027B
:10088B00E32289828A83E49322BB010CE58229F55A
:10089B0082E5833AF583E0225006E92582F8E622C9
:1008AB00BBFE06E92582F8E222E58229F582E58383
:1008BB003AF583E49322A3F8E0C5F025F0F0E58246
:1008CB00158270021583E0C838F0E822C3E49FFF5D
:1008DB00E49EFEE49DFDE49CFC22E6FC08E6FD089C
:1008EB00E6FE08E6FF22E6FB08E6F908E6FA08E66C
:1008FB00CBF822ECF608EDF608EEF608EFF622EC54
:10090B00F0A3EDF0A3EEF0A3EFF022D083D082E4BE
:10091B0093F608740193F608740293F60874039324
:10092B00F6740473A8828583F0D083D082120946B3
:10093B00120946120946120946E473E493A3C583D0
:10094B00C5F0C583C8C582C8F0A3C583C5F0C583F0
:10095B00C8C582C822EF4E6012EF60010EEDBB01DD
:10096B000B89828A83F0A3DFFCDEFA2289F0500721
:10097B00F709DFFCA9F022BBFEFCF309DFFCA9F0B1
:10098B0022E490007CF0A3F0A3F0A3F0A3F0A3F07B
:10099B0078827C007D017BFF7A207955FE7F3212B5
:1009AB00085578B47C007D017BFF7A2079877E0027
:1009BB007F321208557F007E3E121DF47E007F327F
:1009CB007D007B017A0079821209607E007F327D87
:1009DB00007B017A0079B41209601217F590007E42
:1009EB00E4F0A37402F078401208E5900078120945
:1009FB000A90007BE0FF90007EE475F0011208C1C5
:100A0B00FC748225F0F58274003CF583EFF09000C6
:100A1B007AE0FF90007EE475F0011208C1FC74824D
:100A2B0025F0F58274003CF583EFF0900079E0FF40
:100A3B0090007EE475F0011208C1FC748225F0F57C
:100A4B008274003CF583EFF0900078E0FF90007E1D
:100A5B00E475F0011208C1FC748225F0F582740074
:100A6B003CF583EFF078441208E590007812090A00
:100A7B0090007BE0FF90007EE475F0011208C1FC52
:100A8B00748225F0F58274003CF583EFF090007AC8
:100A9B00E0FF90007EE475F0011208C1FC74822522
:100AAB00F0F58274003CF583EFF0900079E0FF9055
:100ABB00007EE475F0011208C1FC748225F0F5820A
:100ACB0074003CF583EFF0900078E0FF90007EE43B
:100ADB0075F0011208C1FC748225F0F58274003C9C
:100AEB00F583EFF078481208E590007812090A9028
:100AFB00007BE0FF90007EE475F0011208C1FC74EE
:100B0B008225F0F58274003CF583EFF090007AE0DB
:100B1B00FF90007EE475F0011208C1FC748225F091
:100B2B00F58274003CF583EFF0900079E0FF9000C4
:100B3B007EE475F0011208C1FC748225F0F5827415
:100B4B00003CF583EFF0900078E0FF90007EE475B9
:100B5B00F0011208C1FC748225F0F58274003CF59B
:100B6B0083EFF0784C1208E590007812090A900098
:100B7B007BE0FF90007EE475F0011208C1FC7482EB
:100B8B0025F0F58274003CF583EFF090007AE0FFDE
:100B9B0090007EE475F0011208C1FC748225F0F51B
:100BAB008274003CF583EFF0900079E0FF90007EBB
:100BBB00E475F0011208C1FC748225F0F582740013
:100BCB003CF583EFF0900078E0FF90007EE475F049
:100BDB00011208C1FC748225F0F58274003CF58388
:100BEB00EFF07858E6FE3395E0900076F0A3CEF068
:100BFB00900077E0FF90007EE475F0011208C1FCD5
:100C0B00748225F0F58274003CF583EFF09000764A
:100C1B00E0FF90007EE475F0011208C1FC748225A0
:100C2B00F0F58274003CF583EFF07859E6FE3395CE
:100C3B00E0900076F0A3CEF0900077E0FF90007E7E
:100C4B00E475F0011208C1FC748225F0F582740082
:100C5B003CF583EFF0900076E0FF90007EE475F0BA
:100C6B00011208C1FC748225F0F58274003CF583F7
:100C7B00EFF0785AE6FE3395E0900076F0A3CEF0D5
:100C8B00900077E0FF90007EE475F0011208C1FC44
:100C9B00748225F0F58274003CF583EFF0900076BA
:100CAB00E0FF90007EE475F0011208C1FC74822510
:100CBB00F0F58274003CF583EFF0785BE6FE33953C
:100CCB00E0900076F0A3CEF0900077E0FF90007EEE
:100CDB00E475F0011208C1FC748225F0F5827400F2
:100CEB003CF583EFF0900076E0FF90007EE475F02A
:100CFB00011208C1FC748225F0F58274003CF58367
:100D0B00EFF0900082745AF0A374A5F0E490007C8D
:100D1B00F0A3F090007EE0FEA3E0FF90007CE0FCEF
:100D2B00A3E0FDC39FEC9E5026E42DFFEC343EFE6A
:100D3B0074822DF58274003CF583E0FD12002E9039
:100D4B00007DE004F0700690007CE004F080C4E4C9
:100D5B0090007CF0A3F090007EE0FEA3E0FF9000FB
:100D6B007CE0FCA3E0FDC39FEC9E502CE42DFFEC3C
:100D7B00343EFE121DC390007CE0FCA3E024B4F5CE
:100D8B008274003CF583EFF090007DE004F0700678
:100D9B0090007CE004F080BEE4900080F0A3F09023
:100DAB00007CF0A3F090007EE0FEA3E0FFC3900078
:100DBB007DE09F90007CE09E503C90007EA3E02461
:100DCB0082F58274003EF583E0FD74B42FF58274D6
:100DDB00003EF583E06D600E900081E004F070063C
:100DEB00900080E004F090007DE004F0700690002D
:100DFB007CE004F080AF900080E0FEA3E0FF22E4F3
:100E0B0090000CF0A3F0A3F0A3F0A3F0A3F07812E2
:100E1B007C007D017BFF7A2079B9FE7F3212085569
:100E2B0078447C007D017BFF7A2079EB7E007F325A
:100E3B00120855E490000CF0A3F090000CE0FEA318
:100E4B00E0FFC39432EE9400502CE42FFFEE343EBF
:100E5B00FE121DC390000CE0FCA3E02412F582747B
:100E6B00003CF583EFF090000DE004F070CC9000A7
:100E7B000CE004F080C4900012E0645A600302118D
:100E8B0080A3E064A5600302118090000EF0A374B0
:100E9B0002F090000EE475F0011208C1FE741225E9
:100EAB00F0F58274003EF583E090000BF090000E9D
:100EBB00E475F0011208C1FE741225F0F58274007E
:100ECB003EF583E090000AF090000EE475F00112FD
:100EDB0008C1FE741225F0F58274003EF583E09094
:100EEB000009F090000EE475F0011208C1FE7412B7
:100EFB0025F0F58274003EF583E0900008F0E0FCED
:100F0B00A3E0FDA3E0FEA3E0FF78401208FE9000F3
:100F1B000EE475F0011208C1FE741225F0F582740F
:100F2B00003EF583E090000BF090000EE475F001AD
:100F3B001208C1FE741225F0F58274003EF583E0B1
:100F4B0090000AF090000EE475F0011208C1FE74D7
:100F5B001225F0F58274003EF583E0900009F090C5
:100F6B00000EE475F0011208C1FE741225F0F58233
:100F7B0074003EF583E0900008F0E0FCA3E0FDA3D5
:100F8B00E0FEA3E0FF78441208FE90000EE475F03B
:100F9B00011208C1FE741225F0F58274003EF58330
:100FAB00E090000BF090000EE475F0011208C1FE0A
:100FBB00741225F0F58274003EF583E090000AF080
:100FCB0090000EE475F0011208C1FE741225F0F5C5
:100FDB008274003EF583E0900009F090000EE475FA
:100FEB00F0011208C1FE741225F0F58274003EF573
:100FFB0083E0900008F0E0FCA3E0FDA3E0FEA3E09B
:10100B00FF78481208FE90000EE475F0011208C13B
:10101B00FE741225F0F58274003EF583E090000B10
:10102B00F090000EE475F0011208C1FE741225F069
:10103B00F58274003EF583E090000AF090000EE418
:10104B0075F0011208C1FE741225F0F58274003E92
:10105B00F583E0900009F090000EE475F0011208A2
:10106B00C1FE741225F0F58274003EF583E090000A
:10107B0008F0E0FCA3E0FDA3E0FEA3E0FF784C1238
:10108B0008FE90000EE475F0011208C1FE741225E3
:10109B00F0F58274003EF583E0900007F090000EAF
:1010AB00E475F0011208C1FE741225F0F58274008C
:1010BB003EF583E0900006F0E0A3E07858F6900050
:1010CB000EE475F0011208C1FE741225F0F582745E
:1010DB00003EF583E0900007F090000EE475F00100
:1010EB001208C1FE741225F0F58274003EF583E000
:1010FB00900006F0E0A3E07859F690000EE475F04E
:10110B00011208C1FE741225F0F58274003EF583BE
:10111B00E0900007F090000EE475F0011208C1FE9C
:10112B00741225F0F58274003EF583E0900006F012
:10113B00E0A3E0785AF690000EE475F0011208C1B6
:10114B00FE741225F0F58274003EF583E0900007E3
:10115B00F090000EE475F0011208C1FE741225F038
:10116B00F58274003EF583E0900006F0E0A3E07892
:10117B005BF60218D7121D4412098C22E4C3785176
:10118B0096FF74041896FEEF7802CEC313CE13D8D5
:10119B00F9FFC394F9EE6480948040047E007FF9DC
:1011AB00EF25E0FFEE33FE74612FF582741E3EF5E2
:1011BB0083E493FC740193FDEC120702900224125A
:1011CB00090AC3E4785396FF74041896FEEF78026D
:1011DB00CEC313CE13D8F9FFC394F9EE6480948079
:1011EB0040047E007FF9EF25E0FFEE33FE74612FA4
:1011FB00F582741E3EF583E493FC740193FDEC12AF
:10120B00070290022812090A7854E6FC08E6FDE46E
:10121B0012070278481208F11205F7C004C005C086
:10122B0006C007785AE6FC120707D003D002D0019C
:10123B00D00012050690022C12090A7856E6FC081B
:10124B00E6FDE4120702784C1208F11205F7C00410
:10125B00C005C006C007785BE6FC120707D003D0B9
:10126B0002D001D00012050690023012090A90023A
:10127B0024E0FCA3E0FDA3E0FEA3E0FF9000061238
:10128B00090A900006E0FFA3E09000EECFF0A3EF79
:10129B00F0900008E0FFA3E09000F0CFF0A3EFF098
:1012AB00900228E0FCA3E0FDA3E0FEA3E0FF90008A
:1012BB000612090A900006E0FFA3E09000F2CFF0BF
:1012CB00A3EFF0900008E0FFA3E09000F4CFF0A3B1
:1012DB00EFF090022CE0FCA3E0FDA3E0FEA3E0FF07
:1012EB0090000612090A900006E0FFA3E09000F6BA
:1012FB00CFF0A3EFF0900008E0FFA3E09000F8CF51
:10130B00F0A3EFF0900230E0FCA3E0FDA3E0FEA31E
:10131B00E0FF90000612090A900006E0FFA3E090A0
:10132B0000FACFF0A3EFF0900008E0FFA3E09000ED
:10133B00FCCFF0A3EFF022E4900004F0A3F0121E18
:10134B000B121D9E7FF4121BA3121E20E4FF121E14
:10135B0033D2AFE4780CF6780DF6FD7F01121D0940
:10136B00E4FD7F02121D097F98121CCD120E0AC2DA
:10137B0004C203C20590022412092F428C00009074
:10138B00022812092F41F0000090022C12092F3F66
:10139B00C0000090023012092F3F00000090023471
:1013AB00E4F0A3743FF0E4A3F0A3F07821760108F6
:1013BB00760408F608F608F608760A121E5730056A
:1013CB0023C2057B017A0179D87877E690000AF081
:1013DB007F0112004EC37809E6940C18E694004086
:1013EB000312098C200203021488C202783FE61410
:1013FB00602314603514604724FA60582409707D0B
:10140B00E4FF121DDC121D757850A60608A607789E
:10141B003F760180687F01121DDC121D757852A684
:10142B000608A607783F760280537F02121DDC1256
:10143B001D757854A60608A607783F7603803E7F75
:10144B0003121DDC121D757856A60608A607783FF9
:10145B0076098029121187E4783FF6900150E0FE5F
:10146B00A3E0FF900234EEF0A3EFF0121C91900278
:10147B0034E0FFA3E09000EACFF0A3EFF0300030B0
:10148B00C200780C06E6FF3395E0FEC3EF940AEE3C
:10149B00648094804005E4F6FD8010780CE6FF3301
:1014AB0095E0FEEF64054E70077D017F01121D096B
:1014BB00300102C20143E1100213C9900238EFF070
:1014CB00E47868F608F608F608F608F608F608F663
:1014DB0008F608F608F608F6EF90023C600BE0FE03
:1014EB00A3E0FF786AA606800DE0FEA3E024FCFFD4
:1014FB00EE34FF786AF608A60712087B786CF67450
:10150B000129F9E43AFAE4786FF608F67868F608F8
:10151B007601786AE6FE08E6FF7868E6FC08E6C323
:10152B009FEE6480F8EC648098506B12087BFF7818
:10153B006CF6740129F9E43AFAEFC3943A4007E6E2
:10154B0024C908F68007786CE624D008F612087BCD
:10155B00FF786CF6740129F9E43AFAEFC3943A4038
:10156B0005E624C98005786CE624D0786EF6786D94
:10157B00E675F010A4FF08E67C002FFFEC35F0FEBB
:10158B007870EF26F618EE36F67869740226F618A0
:10159B00E436F602151D786F08E6F40408F690029F
:1015AB0038E06009E4786CF67871E6805612087BB7
:1015BB00FF786CF6740129F9E43AFAEFC3943A40D8
:1015CB0007E624C908F68007786CE624D008F612E3
:1015DB00087BFF786CF6EFC3943A4005E624C9808C
:1015EB0005786CE624D0786EF6786DE6C454F0FF7F
:1015FB0008E62FFF7872F618E6B50706786C7601C9
:10160B008004E4786CF6786CE6FF22C102C100C15D
:10161B0001016200015E0001610002650000025CD5
:10162B00000002630000016700025F0000C104C1FB
:10163B0003C105017400017600017B0001780001F4
:10164B007300602601FE0000000000000000000097
:10165B00000000000000000000000000000000007F
:10166B0000000000000000000000000002790000F4
:10167B00017500017700017C00602601D800000095
:10168B00000000000000000000000000000000004F
:10169B00000000000000000000000000000000003F
:1016AB00000000602601B2000000000000000000F6
:1016BB00000000000000000000000000000000001F
:1016CB0000000000000000000000000000020A0003
:1016DB000002080000010C00010D0041023E000158
:1016EB003F000850000000000000000010403F8049
:1016FB000000000000000000000000000000045883
:10170B000000000000C0E0C0F0C083C082C0D075F4
:10171B00D01078387600087600C2CF786006E618CD
:10172B0070010630043C7867067967E7C3787496D6
:10173B004030786776007878E6FF7873965021749E
:10174B00FE2FF582E43401F583E07838F608A6AC79
:10175B0075AC0018E6F59908E6F5AC7878068002CA
:10176B00C204300330787A06E618700106D3787A13
:10177B00E6940618E69400401CC2037877E6787569
:10178B00F6FF7E0078B27C017D017B017A0179D86E
:10179B00120855D205786206E6C3940A74809480C9
:1017AB00403D76007866E61618700116D202785E18
:1017BB0006E6C3940A748094804024760018E616DB
:1017CB0018700116D200786106E6C3940A748094EF
:1017DB0080400C76007864E61618700116D201D0A2
:1017EB00D0D082D083D0F0D0E032900166E0FFA35E
:1017FB00E09000E6CFF0A3EFF0900168E0FFA3E0EC
:10180B009000E8CFF0A3EFF09000E6E0FCA3E0FD42
:10181B00A3E0FEA3E0FF78401208FE90016AE0FF10
:10182B00A3E09000E6CFF0A3EFF090016CE0FFA3F4
:10183B00E09000E8CFF0A3EFF09000E6E0FCA3E02F
:10184B00FDA3E0FEA3E0FF78441208FE90016EE0DA
:10185B00FFA3E09000E6CFF0A3EFF0900170E0FF64
:10186B00A3E09000E8CFF0A3EFF09000E6E0FCA33C
:10187B00E0FDA3E0FEA3E0FF78481208FE900172A2
:10188B00E0FFA3E09000E6CFF0A3EFF0900174E04F
:10189B00FFA3E09000E8CFF0A3EFF09000E6E0FCB0
:1018AB00A3E0FDA3E0FEA3E0FF784C1208FE90013D
:1018BB007AA3E07858F690017EA3E008F6900182B7
:1018CB00A3E008F6900186A3E008F6227840120800
:1018DB00E590007612090A900076E0FFA3E09001F4
:1018EB0066CFF0A3EFF0900078E0FFA3E0900168E3
:1018FB00CFF0A3EFF078441208E590007612090AB6
:10190B00900076E0FFA3E090016ACFF0A3EFF09098
:10191B000078E0FFA3E090016CCFF0A3EFF07848E4
:10192B001208E590007612090A900076E0FFA3E01A
:10193B0090016ECFF0A3EFF0900078E0FFA3E09062
:10194B000170CFF0A3EFF0784C1208E590007612FF
:10195B00090A900076E0FFA3E0900172CFF0A3EFAD
:10196B00F0900078E0FFA3E0900174CFF0A3EFF0CC
:10197B007858E6FE3395E090017AF0A3CEF008E6B6
:10198B00FE3395E090017EF0A3CEF008E6FE339592
:10199B00E0900182F0A3CEF008E6FE3395E09001D3
:1019AB0086F0A3CEF022787FE4F6D8FD75817C0219
:1019BB0019F8021342E493A3F8E493A34003F680CF
:1019CB0001F208DFF48029E493A3F85407240CC830
:1019DB00C333C4540F4420C8834004F456800146DB
:1019EB00F6DFE4800B0102040810204080901616ED
:1019FB00E47E019360BCA3FF543F30E509541FFE06
:101A0B00E493A360010ECF54C025E060A840B8E476
:101A1B0093A3FAE493A3F8E493A3C8C582C8CAC5F9
:101A2B0083CAF0A3C8C582C8CAC583CADFE9DEE78B
:101A3B0080BEC0E0C0F0C083C082C0D075D000C0F3
:101A4B0000C001C002C003C004C005C006C00778B7
:101A5B003A7600087600309840C298A6AC75AC0078
:101A6B0018A69908E6F5AC2003157E007F267D00AD
:101A7B007B017A0179D812096078777600D20378E6
:101A8B003AE6FF7877E60624D8F582E43401F5834D
:101A9B00EFF078797600087600309902C299D0077A
:101AAB00D006D005D004D003D002D001D000D0D0C6
:101ABB00D082D083D0F0D0E032900035EBF0A3EAA7
:101ACB00F0A3E9F0A3ECF0A3EDF0900035E0FBA35D
:101ADB00E0FAA3E0F9ED24FEFDEC34FFFC121C0050
:101AEB007831A60608A607900035E0FBA3E0FAA321
:101AFB00E0F9A3E0FCA3E0FD24FEF58274FF3CF5C6
:101B0B0083120894FE74FF2DF58274FF3CF583124B
:101B1B0008947C002400FFEC3EFE7833F608EFF6C9
:101B2B007832E6B5070818E6B506037F01227F0079
:101B3B0022C0E0C0D075D000C000C004C005C006F4
:101B4B00C007783C760008760008760053C4F7E5AA
:101B5B00C65403FEADC57C00E42D18F6EC3E18F61A
:101B6B00E6FE08E6FF783FE625E02450F8A60608D7
:101B7B00A607783F06E6C3940474809480400276EF
:101B8B000053C4F8783FE642C4D007D006D005D046
:101B9B0004D000D0D0D0E03243892075A3008F8BC6
:101BAB008F8D759850438780EFFD7C00D394A07484
:101BBB0080948050067874760C8035D3ED94E8ECE5
:101BCB00648094805006787476068024D3ED94F468
:101BDB00EC648094805006787476038013D3ED9474
:101BEB00F8EC64809480787450047602800276015D
:101BFB00D28ED2AC2290003AEBF0A3EAF0A3E9F03C
:101C0B00783576FF0876FFED1DAE0470011C4E6033
:101C1B002E90003AE0FBA3E475F0011208C1A9F085
:101C2B00FA12087B7835667937F77837E6FF90211B
:101C3B001D9318667935F7EF90221D93F680C878BF
:101C4B0035E6FE08E6FDEDFF22AB07AA0675E78039
:101C5B0075E504EAF5E3AF038FE4AF058FE275E6B4
:101C6B004675E6B9E4FEFF0FBF00010EBEFFF8BFDD
:101C7B00FFF5E4FEFF0FBF00010EBEFFF8BFFFF53F
:101C8B00E4F5E5F5E722EF30E004D2968002C29648
:101C9B00EF30E104D2978002C297EF30E204D2A278
:101CAB008002C2A2EF30E304D2A38002C2A3EF30C2
:101CBB00E404D2A48002C2A4EF30E503D2A622C270
:101CCB00A622EF30E004D2E98002C2E9EF30E10452
:101CDB00D2E88002C2E8EF30E204D2B58002C2B58E
:101CEB00EF30E304D2B48002C2B4EF30E404D2B3D9
:101CFB008002C2B3EF30E703D2B222C2B222EFFBB3
:101D0B003395E0FAEB64014A7016EDF5823395E0FA
:101D1B00F583E582640145837004C2F88002D2F832
:101D2B00EB64024A7012AF05EF3395E0FEEF6401EE
:101D3B004E7003C2F922D2F92278401209163F8065
:101D4B00000078441209163F8000007848120916EB
:101D5B003F800000784C1209163F800000E4785851
:101D6B00F608F608F608F60218D7E47827F608F610
:101D7B0043C408E5C430E4FBE5C65403FEADC57CA3
:101D8B0000E42D7828F6EC3E18F653C4EFE6FE0877
:101D9B00E6FF22E4F5C8F5C943878090000674F886
:101DAB00F0A374CDF0900006E0F5CBA3E0F5CAC22A
:101DBB00CFD2CAD2BDD2AD22AD07AC06ECF5E3ED66
:101DCB00F5E475E50175E78075E64675E6B9AFE2B2
:101DDB002253C4F8EF42C47C037DE8ED1DAE0470C2
:101DEB00011C4E70F643C40822AD07AC06ECF5E3BC
:101DFB00EDF5E475E50375E78075E64675E6B92202
:101E0B0043C7D07D547F407E00121C547D3E7F0320
:101E1B007E00021C5475B4404391C043955C75AC75
:101E2B000143B503E4F5AC2275920F75C370E4F56D
:101E3B00BB75C480EF600343AD0222E4785FF60804
:101E4B00F6C37860E69F18E69E40F622439701752D
:101E5B00E1D743E12022FFFBFFFCFFFCFFFDFFFD71
:101E6B00FFFEFFFEFFFFFFFF00000000000100026E
:101E7B000002000300030004000400050006000735
:101E8B0000070008000800090009000A000A000BFF
:101E9B00000C000C000D000D000E000E000F000FCB
:101EAB00001000100011001100120012001200139C
:101EBB000013001400140015001500160016001670
:101ECB000017001700180018001800190019001A45
:101EDB00001A001B001B001C001C001C001D001D19
:101EEB00001D001E001E001F001F001F00200020F1
:101EFB0000210021002100220022002300230023C7
:101F0B00002400240025002500250026002600279C
:101F1B00002700280028002800290029002A002A71
:101F2B00002A002B002B002B002C002C002C002D4A
:101F3B00002D002E002E002E002F002F0030003021
:101F4B0000300031003100320032003200330033F8
:101F5B0000330034003400350035003600360036CF
:101F6B00003700370038003800390039003A003AA2
:101F7B00003B003B003C003C003C003D003D003E74
:101F8B00003E003F003F0040004000410041004246
:101F9B00004300440044004500450046004600470E
:101FAB000047004800480049004A004A004B004BDC
:101FBB00004C004C004D004E004F005000500051A3
:101FCB000052005300530054005500560057005860
:101FDB000059005A005B005C005D005E005F006012
:101FEB0000610062006300640065006600670068C2
:101FFB000069006A006B006C006D006E006F007072
:10200B000071007200730074007500760077007821
:10201B000079007A007B007C007D007E007F0080D1
:10202B000081008200830084008500860087008881
:10203B000089008A008B008C008D008E008F009031
:10204B0000910092009300940095000000000000A6
:10205B000000000000000000000000000000000075
:10206B000000000000000000000000000000000065
:10207B000000000000000000000000000000000055
:10208B000000000000000000000000000000000045
:10209B000000000000000000000000000000000035
:1020AB000000000000000000000000000000000025
:1020BB000000000000000000000000000000000015
:1020CB000000000000000000000000000000000005
:1020DB0000000000000000000000000000000000F5
:1020EB0000000000000000000000000000000000E5
:1020FB0000000000000000000000000000000000D5
:10210B0000000000000000000000000000000000C4
:10211B00000000C1814001C0804101C0804100C16D
:10212B00814001C0804100C1814000C1814001C09C
:10213B00804101C0804100C1814000C1814001C08C
:10214B00804100C1814001C0804101C0804100C17C
:10215B00814001C0804100C1814000C1814001C06C
:10216B00804100C1814001C0804101C0804100C15C
:10217B00814000C1814001C0804101C0804100C14C
:10218B00814001C0804100C1814000C1814001C03C
:10219B00804101C0804100C1814000C1814001C02C
:1021AB00804100C1814001C0804101C0804100C11C
:1021BB00814000C1814001C0804101C0804100C10C
:1021CB00814001C0804100C1814000C1814001C0FC
:1021DB00804100C1814001C0804101C0804100C1EC
:1021EB00814001C0804100C1814000C1814001C0DC
:1021FB00804101C0804100C1814000C1814001C0CC
:10220B00804100C1814001C0804101C0804100C1BB
:10221B00814000C0C101C30302C2C60607C705C582
:10222B00C404CC0C0DCD0FCFCE0E0ACACB0BC909F3
:10223B0008C8D81819D91BDBDA1A1EDEDF1FDD1D03
:10224B001CDC14D4D515D71716D6D21213D311D133
:10225B00D010F03031F133F3F23236F6F737F53583
:10226B0034F43CFCFD3DFF3F3EFEFA3A3BFB39F9B3
:10227B00F83828E8E929EB2B2AEAEE2E2FEF2DED83
:10228B00EC2CE42425E527E7E62622E2E323E121F3
:10229B0020E0A06061A163A3A26266A6A767A56503
:1022AB0064A46CACAD6DAF6F6EAEAA6A6BAB69A973
:1022BB00A86878B8B979BB7B7ABABE7E7FBF7DBD83
:1022CB00BC7CB47475B577B7B67672B2B373B171B3
:1022DB0070B0509091519353529296565797559583
:1022EB0094549C5C5D9D5F9F9E5E5A9A9B5B995933
:1022FB005898884849894B8B8A4A4E8E8F4F8D4D03
:10230B004C8C448485458747468682424383418172
:10231B0080400000000000000000000000000000F2
:10232B0000000000000000000000000000000000A2
:0A233B000000000000000000000098
:00000001FF
