:10000000020FE6C204E47878F67873A605AF05EF30
:100010003395E0FE78147C017D0112084DD2042254
:0700230002107243C4082221
:10002B00020F01AB07AA0675E78075E504EAF5E355
:0F003B00AF038FE4AF058FE275E64675E6B92295
:10004B0002117190013EEFF0A3EBF0A3EAF0A3E9EC
:10005B00F0E47827F608F608F608F608F608F6082E
:10006B00F608F608F608F678457C017D017BFF7AE9
:10007B001779E3FE7F2812084D90013EE064027869
:10008B002D760190013FE0FBA3E0FAA3E0F9A3E09A
:10009B00FD7C001210F9EF3395E0FE7827F608EFA0
:1000AB00F64E70030204EE90013FE0FBA3E0FAA3CF
:1000BB00E0F9120873782D6660030204EEFE7F28C8
:1000CB00FD7B017A017945120940782B7601782D59
:1000DB00E6900145F090013FE0FBA3E0FAA3E0F9C5
:1000EB00782BE606F58275830012088C782CF6E6E1
:1000FB00FF900146F018E606F58275830012088C16
:10010B00900143F0782BE606F58275830012088C7C
:10011B00900144F0900143E0FCA3E0782EA6040884
:10012B00F6782BE606F58275830012088C90014356
:10013B00F0782BE606F58275830012088C9001444B
:10014B00F0900143E0A3E07830F67829760008764A
:10015B0002EF24FD601E14700302021F240324FB14
:10016B00400302046470030202BF24F6700302030F
:10017B005802045B7830E625E0FF78290806E6187C
:10018B008604700106142445F58274013CF583EF57
:10019B00F0E47827F608F67830E6FF7827E6FC08D7
:1001AB00E6FDC39FEC94004003020464ED782F2618
:1001BB00FFEC1836FEEF25E0FFEE33FE74642FF5EF
:1001CB008274003EF583E0FFA3E0900143CFF0A3E0
:1001DB00EFF0900143E0FF78290806E618860470DB
:1001EB000106142445F58274013CF583EFF0900170
:1001FB0044E0FF78290806E61886047001061424EB
:10020B0045F58274013CF583EFF0782806E618700B
:10021B00860680837830E625E0FF78290806E61805
:10022B008604700106142445F58274013CF583EFB6
:10023B00F0E47827F608F67830E6FF7827E6FC0836
:10024B00E6FDC39FEC94004003020464ED782F2677
:10025B00FFEC1836FEEF25E0FFEE33FE74002FF5B2
:10026B008274003EF583E0FFA3E0900143CFF0A33F
:10027B00EFF0900143E0FF78290806E6188604703A
:10028B000106142445F58274013CF583EFF09001CF
:10029B0044E0FF78290806E618860470010614244A
:1002AB0045F58274013CF583EFF0782806E618706B
:1002BB00860680837830E6FD7C0018E625E0FF1883
:1002CB00E633FE74642FF58274003EF583ECF0A3E5
:1002DB00EDF0E6FF08E6900143CFF0A3EFF09001BD
:1002EB0043E0FF78290806E61886027001061424FD
:1002FB0045F58274013AF583EFF0900144E0FF7805
:10030B00290806E6188602700106142445F5827446
:10031B00013AF583EFF0900143ECF0A3EDF090017F
:10032B0043E0FF78290806E61886047001061424BA
:10033B0045F58274013CF583EFF0900144E0FF78C2
:10034B00290806E618860470010602044D782B0670
:10035B00E47827F608F67830E6FFC37828E69F188E
:10036B00E69400505F90013FE0FBA3E0FAA3E0F9B5
:10037B00782BE606F58275830012088C900143F00A
:10038B00782BE606F58275830012088C900144F0F9
:10039B00900143E0FCA3E0FD7928E7782F26FF19B5
:1003AB00E71836FEEF25E0FFEE33FE74642FF5827F
:1003BB0074003EF583ECF0A3EDF0782806E6187098
:1003CB0095068092782EE6FF08E6900143CFF0A3C6
:1003DB00EFF0900143E0FF78290806E618860470D9
:1003EB000106142445F58274013CF583EFF090016E
:1003FB0044E0FF78290806E61886047001061424E9
:10040B0045F58274013CF583EFF07830E6FF9001FF
:10041B0043E4F0A3EFF0900143E0FF78290806E6F0
:10042B00188604700106142445F58274013CF5838B
:10043B00EFF0900144E0FF78290806E61886047077
:10044B000106142445F58274013CF583EFF0800915
:10045B00782CE62480900146F07B017A017945786F
:10046B0029E6FC08E6FD121235900143EEF0A3EFEE
:10047B00F0900143E0FF78290806E6188604700126
:10048B0006142445F58274013CF583EFF09001448A
:10049B00E0FF78290806E618860470010614244547
:1004AB00F58274013CF583EFF090013EE06402604D
:1004BB0036782AE67873F67E007F267D007B017AFC
:1004CB000179141209407873E6FF7E0078147C01E1
:1004DB007D017B017A01794512084DE47878F6D2DB
:1004EB00048004782B76FF782BE6FF22020768E85E
:1004FB006480F8E933E83360110460F0ED33EC33DA
:10050B007009E8FCE9FDEAFEEBFF220460DED3EBA9
:10051B009FEA9EE99DE8C2E78CF0C2F795F0400C8C
:10052B00E8CCF8E9CDF9EACEFAEBCFFB120733852D
:10053B00D0F05804700320D5B3E80470075002B212
:10054B00D502077292D5EC0460F7E4CCC0E0C398F7
:10055B00F8603B94186008400DD0E0FB02074AE4BA
:10056B00FBFAC9FC8028E830E406E4C9FBE4CAFCCA
:10057B00E830E305E4C9CACBFCE854076010F8C3C4
:10058B00E913F9EA13FAEB13FBEC13FCD8F130F592
:10059B002FC3E49CFCEF9BFFEE9AFEED99FDD0E0A0
:1005AB00FBEF4E4D4C701222DB0302076FEC2CFC61
:1005BB00EF33FFEE33FEED33FDED30E7EB02074A91
:1005CB00EF2BFFEE3AFEED39FDD0E0FB50130BBBEA
:1005DB000003020772ED13FDEE13FEEF13FFEC1396
:1005EB00FC02074AEC4D6011E8497017ED33EC3310
:1005FB0004600DE4FCFFFEFD22E933E8330470F8E0
:10060B0002076812073358046009E4CC24815006B2
:10061B0028500902077228400302076FC0E0EB4A1B
:10062B007044B98006D0E0FB02075EEF4E701CBD34
:10063B008008EBFFEAFEE9FD80EBE98DF0A4FEE517
:10064B00F00206D8E9CDF9EAFEEBFFEF89F0A4FC46
:10065B00E5F0CE89F0A42EFFE435F0CD89F0A42D82
:10066B00FEE435F08067EF4E7005BD80D780C3EF99
:10067B008BF0A4ACF0EE8BF0A42CFCE435F0F8EF8F
:10068B008AF0A42CE5F038FCE433CB8DF0A42CFCE1
:10069B00E5F03BF8EE8AF0A42CFCE5F038F8E433F7
:1006AB00CF89F0A42CFCE5F038CF3400CE89F0A430
:1006BB002FFFE5F03EFEE433C98DF0A42EFEE5F0EE
:1006CB0039CD8AF0A42FFFE5F03EFEE43DFD33D09B
:1006DB00E0FB50070BBB000F020772EC2CFCEF3357
:1006EB00FFEE33FEED33FD02074A75F020800E75E9
:1006FB00F010800575F0087D007E007F003392D5E9
:10070B0030D5031208CFEC334010EF33FFEE33FE3E
:10071B00ED33FDEC33FCD5F0ED22E5F0247EA2D5D4
:10072B0013CC92E7CDCEFF22E9D2E7C933E833F8F9
:10073B0092D5EDD2E7CD33EC33FC5002B2D522EC9F
:10074B0030E7100FBF000C0EBE00080DBD00040BF0
:10075B00EB6014A2D5EB13FCED92E7FD2274FFFCCA
:10076B00FDFEFF22E480F8A2D574FF13FC7D80E42C
:10077B0080EFE709F608DFFA8046E709F208DFFAAF
:10078B00803E88828C83E709F0A3DFFA8032E3098D
:10079B00F608DFFA8078E309F208DFFA80708882C6
:1007AB008C83E309F0A3DFFA806489828A83E0A358
:1007BB00F608DFFA805889828A83E0A3F208DFFA11
:1007CB00804C80D280FA80C680D4806980F28033DE
:1007DB00801080A680EA809A80A880DA80E280CAA6
:1007EB00803389828A83ECFAE493A3C8C582C8CC90
:1007FB00C583CCF0A3C8C582C8CCC583CCDFE9DEEA
:10080B00E7800D89828A83E493A3F608DFF9ECFA7B
:10081B00A9F0EDFB2289828A83ECFAE0A3C8C5829A
:10082B00C8CCC583CCF0A3C8C582C8CCC583CCDFEC
:10083B00EADEE880DB89828A83E493A3F208DFF99E
:10084B0080CC88F0EF60010E4E60C388F0ED24027F
:10085B00B4040050B9F582EB2402B4040050AF236A
:10086B00234582239007CD73BB010689828A83E0DF
:10087B00225002E722BBFE02E32289828A83E493A1
:10088B0022BB010CE58229F582E5833AF583E02250
:10089B005006E92582F8E622BBFE06E92582F8E23E
:1008AB0022E58229F582E5833AF583E49322A3F8C6
:1008BB00E0C5F025F0F0E582158270021583E0C8E3
:1008CB0038F0E822C3E49FFFE49EFEE49DFDE49C28
:1008DB00FC22E6FB08E6F908E6FA08E6CBF822EC80
:1008EB00F0A3EDF0A3EEF0A3EFF022D083D082E4DF
:1008FB0093F608740193F608740293F60874039345
:10090B00F6740473A8828583F0D083D082120926F3
:10091B00120926120926120926E473E493A3C58350
:10092B00C5F0C583C8C582C8F0A3C583C5F0C58310
:10093B00C8C582C822EF4E6012EF60010EEDBB01FD
:10094B000B89828A83F0A3DFFCDEFA2289F0500741
:10095B00F709DFFCA9F022BBFEFCF309DFFCA9F0D1
:10096B0022E4C3785196FF74041896FEEF7802CEFA
:10097B00C313CE13D8F9FFC394F9EE64809480406F
:10098B00047E007FF9EF25E0FFEE33FE74EF2FF5C9
:10099B008274153EF583E493FC740193FDEC12060F
:1009AB00FA9001751208EAC3E4785396FF740418A1
:1009BB0096FEEF7802CEC313CE13D8F9FFC394F98A
:1009CB00EE6480948040047E007FF9EF25E0FFEE1B
:1009DB0033FE74EF2FF58274153EF583E493FC74AC
:1009EB000193FDEC1206FA9001791208EA7854E6AD
:1009FB00FC08E6FDE41206FA78481208DD1205EF52
:100A0B00C004C005C006C007785AE6FC1206FFD02A
:100A1B0003D002D001D0001204FE90017D1208EA2F
:100A2B007856E6FC08E6FDE41206FA784C1208DD6F
:100A3B001205EFC004C005C006C007785BE6FC12C8
:100A4B0006FFD003D002D001D0001204FE9001812A
:100A5B001208EA900175E0FCA3E0FDA3E0FEA3E021
:100A6B00FF90013E1208EA90013EE0FFA3E09000E8
:100A7B0004CFF0A3EFF0900140E0FFA3E09000065D
:100A8B00CFF0A3EFF0900179E0FCA3E0FDA3E0FE33
:100A9B00A3E0FF90013E1208EA90013EE0FFA3E0C5
:100AAB00900008CFF0A3EFF0900140E0FFA3E0909F
:100ABB00000ACFF0A3EFF090017DE0FCA3E0FDA3D3
:100ACB00E0FEA3E0FF90013E1208EA90013EE0FF3A
:100ADB00A3E090000CCFF0A3EFF0900140E0FFA358
:100AEB00E090000ECFF0A3EFF0900181E0FCA3E0CB
:100AFB00FDA3E0FEA3E0FF90013E1208EA90013E49
:100B0B00E0FFA3E0900010CFF0A3EFF0900140E0E6
:100B1B00FFA3E0900012CFF0A3EFF022E4FBFA1258
:100B2B0013D91213657FF41211D81213A2E4FF121A
:100B3B0013B5D2AFE4780AF6780BF6FD7F011213EA
:100B4B0001E4FD7F021213017F981212C5E4FAFB38
:100B5B00A903E925E025E02440F81208F63F8000C0
:100B6B0000745829F8E4F60BBB00010AEB64044A45
:100B7B0070DEC204C203C20590017512090F428CCC
:100B8B00000090017912090F41F0000090017D12D5
:100B9B00090F3FC0000090018112090F3F000000B8
:100BAB00900185E4F0A3743FF0E4A3F0A3F0782167
:100BBB00760108760408F608F608F608760A12138A
:100BCB00E5300514C2057B017A0079EE7877E69063
:100BDB000142F07F0112004E300264C202783FE600
:100BEB0014601F14603114604324037052E4FF122D
:100BFB00138A12133C7850A60608A607783F760195
:100C0B00803D7F0112138A12133C7852A60608A668
:100C1B0007783F760280287F0212138A12133C78E2
:100C2B0054A60608A607783F760380137F0312139A
:100C3B008A12133C7856A60608A607E4783FF630CE
:100C4B000055C20012096C900066E0FEA3E0FF9015
:100C5B000185EEF0A3EFF0121289900185E0FFA35E
:100C6B00E0900000CFF0A3EFF0780A06E6FF339593
:100C7B00E0FEC3EF940AEE648094804005E4F6FD39
:100C8B008010780AE6FF3395E0FEEF64054E70079F
:100C9B007D017F01121301300111C201780C06E6B0
:100CAB00C3940A748094804002E4F643E110020B73
:100CBB00CC900189EFF0E47868F608F608F608F6B0
:100CCB0008F608F608F608F608F608F608F6EF90A8
:100CDB00018D600BE0FEA3E0FF786AA606800DE0B5
:100CEB00FEA3E024FCFFEE34FF786AF608A6071299
:100CFB000873786CF6740129F9E43AFAE4786FF624
:100D0B0008F67868F6087601786AE6FE08E6FF785A
:100D1B0068E6FC08E6C39FEE6480F8EC64809850AC
:100D2B006B120873FF786CF6740129F9E43AFAEF49
:100D3B00C3943A4007E624C908F68007786CE6248A
:100D4B00D008F6120873FF786CF6740129F9E43AAF
:100D5B00FAEFC3943A4005E624C98005786CE62483
:100D6B00D0786EF6786DE675F010A4FF08E67C007F
:100D7B002FFFEC35F0FE7870EF26F618EE36F6788E
:100D8B0069740226F618E436F6020D13786F08E63E
:100D9B00F40408F6900189E06009E4786CF6787148
:100DAB00E68056120873FF786CF6740129F9E43A61
:100DBB00FAEFC3943A4007E624C908F68007786C2B
:100DCB00E624D008F6120873FF786CF6EFC3943A5A
:100DDB004005E624C98005786CE624D0786EF67859
:100DEB006DE6C454F0FF08E62FFF7872F618E6B5EF
:100DFB000706786C76018004E4786CF6786CE6FF75
:100E0B0022010C00C102C100C101016200015E00A0
:100E1B0001610002650000025C000002630000013A
:100E2B006700025F0000C104C103C105017400012A
:100E3B007600017B0001780001730060260114002D
:100E4B000000000000000000000000000000000097
:100E5B000000000000000000000000000000000087
:100E6B00000000000002790000017500017700010D
:100E7B007C00602600EE0000000000000000000077
:100E8B000000000000000000000000000000000057
:100E9B00000000000000000000000000602600C8F9
:100EAB000000000000000000000000000000000037
:100EBB000000000000000000000000000000000027
:100ECB00000000000000010A00010B0041018F002F
:100EDB00013F000850000000000000000010403FE0
:100EEB008000000000000000000000000000000473
:100EFB00580000000000C0E0C0F0C083C082C0D02A
:100F0B0075D01078387600087600C2CF786006E688
:100F1B001870010630043C7867067967E7C378746C
:100F2B00964030786776007878E6FF787396502194
:100F3B0074142FF582E43401F583E07838F608A6B3
:100F4B00AC75AC0018E6F59908E6F5AC7878068038
:100F5B0002C204300330787A06E618700106D378A3
:100F6B007AE6940618E69400401CC2037877E6787C
:100F7B0075F6FF7E0078C87C007D017B017A0079D5
:100F8B00EE12084DD205786206E6C3940A7480947B
:100F9B0080403D76007866E61618700116D202780E
:100FAB005E06E6C3940A748094804024760018E6AB
:100FBB001618700116D200786106E6C3940A748085
:100FCB009480400C76007864E61618700116D201F6
:100FDB00D0D0D082D083D0F0D0E032787FE4F6D876
:100FEB00FD75817C02102D020B27E493A3F8E4938B
:100FFB00A34003F68001F208DFF48029E493A3F801
:10100B005407240CC8C333C4540F4420C883400472
:10101B00F456800146F6DFE4800B01020408102031
:10102B004080900E0CE47E019360BCA3FF543F30D4
:10103B00E509541FFEE493A360010ECF54C025E0D5
:10104B0060A840B8E493A3FAE493A3F8E493A3C88D
:10105B00C582C8CAC583CAF0A3C8C582C8CAC5831E
:10106B00CADFE9DEE780BEC0E0C0F0C083C082C04B
:10107B00D075D000C000C001C002C003C004C005C1
:10108B00C006C007783A7600087600309840C298C0
:10109B00A6AC75AC0018A69908E6F5AC2003157E36
:1010AB00007F267D007B017A0079EE12094078776C
:1010BB007600D203783AE6FF7877E60624EEF582DF
:1010CB00E43400F583EFF0787976000876003099F8
:1010DB0002C299D007D006D005D004D003D002D0DD
:1010EB0001D000D0D0D082D083D0F0D0E0329001AC
:1010FB006DEBF0A3EAF0A3E9F0A3ECF0A3EDF09015
:10110B00016DE0FBA3E0FAA3E0F9ED24FEFDEC3466
:10111B00FFFC1212357831A60608A60790016DE088
:10112B00FBA3E0FAA3E0F9A3E0FCA3E0FD24FEF5AA
:10113B008274FF3CF58312088CFE74FF2DF58274CC
:10114B00FF3CF58312088C7C002400FFEC3EFE78FC
:10115B0033F608EFF67832E6B5070818E6B506035E
:10116B007F01227F0022C0E0C0D075D000C000C03C
:10117B0004C005C006C007783C76000876000876E8
:10118B000053C4F7E5C65403FEADC57C00E42D182F
:10119B00F6EC3E18F6E6FE08E6FF783FE625E0247F
:1011AB0050F8A60608A607783F06E6C39404748099
:1011BB0094804002760053C4F8783FE642C4D007CF
:1011CB00D006D005D004D000D0D0D0E03243892057
:1011DB0075A3008F8B8F8D759850438780EFFD7CA7
:1011EB0000D394A07480948050067874760C80356C
:1011FB00D3ED94E8EC648094805006787476068086
:10120B0024D3ED94F4EC64809480500678747603C8
:10121B008013D3ED94F8EC6480948078745004764A
:10122B000280027601D28ED2AC22900172EBF0A337
:10123B00EAF0A3E9F0783576FF0876FFED1DAE04F2
:10124B0070011C4E602E900172E0FBA3E475F0015F
:10125B001208B9A9F0FA1208737835667937F7785E
:10126B0037E6FF9013EF9318667935F7EF9014EF8D
:10127B0093F680C87835E6FE08E6FDEDFF22EF30E9
:10128B00E004D2968002C296EF30E104D29780023E
:10129B00C297EF30E204D2A28002C2A2EF30E30485
:1012AB00D2A38002C2A3EF30E404D2A48002C2A472
:1012BB00EF30E503D2A622C2A622EF30E004D2E93A
:1012CB008002C2E9EF30E104D2E88002C2E8EF30DD
:1012DB00E204D2B58002C2B5EF30E304D2B480028F
:1012EB00C2B4EF30E404D2B38002C2B3EF30E703F1
:1012FB00D2B222C2B222EFFB3395E0FAEB64014A81
:10130B007016EDF5823395E0F583E5826401458334
:10131B007004C2F88002D2F8EB64024A7012AF0577
:10132B00EF3395E0FEEF64014E7003C2F922D2F960
:10133B0022E47827F608F643C408E5C430E4FBE55D
:10134B00C65403FEADC57C00E42D7828F6EC3E18A0
:10135B00F653C4EFE6FE08E6FF22E4F5C8F5C943F1
:10136B00878090013E74F8F0A374CDF090013EE0BD
:10137B00F5CBA3E0F5CAC2CFD2CAD2BDD2AD2253B0
:10138B00C4F8EF42C47C037DE8ED1DAE0470011C74
:10139B004E70F643C4082275B4404391C043955C2C
:1013AB0075AC0143B503E4F5AC2275920F75C370B0
:1013BB00E4F5BB75C480EF600343AD0222E4785FB4
:1013CB00F608F6C37860E69F18E69E40F62243C700
:1013DB00D07D547F407E0002002E43970175E1D7EC
:1013EB0043E1202200C1814001C0804101C0804106
:1013FB0000C1814001C0804100C1814000C18140DA
:10140B0001C0804101C0804100C1814000C18140C9
:10141B0001C0804100C1814001C0804101C08041B9
:10142B0000C1814001C0804100C1814000C18140A9
:10143B0001C0804100C1814001C0804101C0804199
:10144B0000C1814000C1814001C0804101C0804189
:10145B0000C1814001C0804100C1814000C1814079
:10146B0001C0804101C0804100C1814000C1814069
:10147B0001C0804100C1814001C0804101C0804159
:10148B0000C1814000C1814001C0804101C0804149
:10149B0000C1814001C0804100C1814000C1814039
:1014AB0001C0804100C1814001C0804101C0804129
:1014BB0000C1814001C0804100C1814000C1814019
:1014CB0001C0804101C0804100C1814000C1814009
:1014DB0001C0804100C1814001C0804101C08041F9
:1014EB0000C1814000C0C101C30302C2C60607C7C9
:1014FB0005C5C404CC0C0DCD0FCFCE0E0ACACB0B39
:10150B00C90908C8D81819D91BDBDA1A1EDEDF1F68
:10151B00DD1D1CDC14D4D515D71716D6D21213D358
:10152B0011D1D010F03031F133F3F23236F6F73708
:10153B00F53534F43CFCFD3DFF3F3EFEFA3A3BFBF8
:10154B0039F9F83828E8E929EB2B2AEAEE2E2FEFA8
:10155B002DEDEC2CE42425E527E7E62622E2E32318
:10156B00E12120E0A06061A163A3A26266A6A76748
:10157B00A56564A46CACAD6DAF6F6EAEAA6A6BABB8
:10158B0069A9A86878B8B979BB7B7ABABE7E7FBFE8
:10159B007DBDBC7CB47475B577B7B67672B2B373D8
:1015AB00B17170B050909151935352929656579788
:1015BB00559594549C5C5D9D5F9F9E5E5A9A9B5B78
:1015CB0099595898884849894B8B8A4A4E8E8F4F28
:1015DB008D4D4C8C44848545874746868242438398
:1015EB0041818040FFFBFFFCFFFCFFFDFFFDFFFE89
:1015FB00FFFEFFFFFFFF00000000000100020002E2
:10160B0000030003000400040005000600070007A8
:10161B000008000800090009000A000A000B000C72
:10162B00000C000D000D000E000E000F000F00103F
:10163B000010001100110012001200120013001311
:10164B0000140014001500150016001600160017E4
:10165B00001700180018001800190019001A001ABA
:10166B00001B001B001C001C001C001D001D001D8E
:10167B00001E001E001F001F001F00200020002165
:10168B00002100210022002200230023002300243C
:10169B000024002500250025002600260027002712
:1016AB0000280028002800290029002A002A002AE7
:1016BB00002B002B002B002C002C002C002D002DC0
:1016CB00002E002E002E002F002F00300030003097
:1016DB00003100310032003200320033003300336E
:1016EB000034003400350035003600360036003744
:1016FB0000370038003800390039003A003A003B17
:10170B00003B003C003C003C003D003D003E003EE9
:10171B00003F003F004000400041004100420043B9
:10172B000044004400450045004600460047004782
:10173B00004800480049004A004A004B004B004C4F
:10174B00004C004D004E004F005000500051005215
:10175B0000530053005400550056005700580059D1
:10176B00005A005B005C005D005E005F0060006182
:10177B000062006300640065006600670068006932
:10178B00006A006B006C006D006E006F00700071E2
:10179B000072007300740075007600770078007992
:1017AB00007A007B007C007D007E007F0080008142
:1017BB0000820083008400850086008700880089F2
:1017CB00008A008B008C008D008E008F00900091A2
:1017DB0000920093009400950000000000000000B0
:1017EB0000000000000000000000000000000000EE
:1017FB0000000000000000000000000000000000DE
:00000001FF
