:10000000020ABEC204E4785BF67856A605AF05EF97
:100010003395E0FE784C7C007D01120523D204224A
:07002300020B4A75B44022F4
:10002B000208FCAB07AA0675E78075E504EAF5E361
:0F003B00AF038FE4AF058FE275E64675E6B92295
:10004B00020CFA9000DBEBF0A3EAF0A3E9F0E47802
:10005B0027F608F608F608F608F608F608F608F686
:10006B0008F608F6EF6402782C76019000DBE0FBD3
:10007B00A3E0FAA3E0F9A3E0FD7C00120BD1EF3370
:10008B0095E0FE7827F608EFF64E700302026C90AF
:10009B0000DBE0FBA3E0FAA3E0F9120549782C663C
:1000AB00600302026C187601E606F5827583001276
:1000BB000562782DF6E47827F608F6782DE61470AD
:1000CB00030202701470030202701460191460169C
:1000DB0014700302027014700302018424F670037F
:1000EB000202010202649000DBE0FBA3E0FAA3E052
:1000FB00F9782BE606F582758300120562C3137837
:10010B0030F6E47827F608F67830E6FFC37828E671
:10011B009F18E6940040030202709000DBE0FBA303
:10012B00E0FAA3E0F9782BE606F582758300120559
:10013B00629000DFF0782BE606F5827583001205DE
:10014B00629000E0F09000DFE0FCA3E0FD7928E78F
:10015B00780926FF19E71836FEEF25E0FFEE33FE90
:10016B0074722FF58274003EF583ECF0A3EDF078FA
:10017B002806E618709206808F9000DBE0FBA3E068
:10018B00FAA3E0F9782BE606F58275830012056277
:10019B009000DFF0782BE606F5827583001205627E
:1001AB009000E0F09000DFE0FEA3E0782EA60608BA
:1001BB00F6782BE606F5827583001205629000DF58
:1001CB00F0782BE606F5827583001205629000E04D
:1001DB00F09000DFE0A3E07830F6E6FD18E625E0CE
:1001EB00FF18E633FE74722FF58274003EF583E43C
:1001FB00F0A3EDF0806F9000DBE0FBA3E0FAA3E04F
:10020B00F9782BE606F5827583001205629000DF04
:10021B00F0782BE606F5827583001205629000E0FC
:10022B00F09000DFE0FEA3E0782EA60608F6782B10
:10023B00E606F5827583001205629000DFF0782BDD
:10024B00E606F5827583001205629000E0F09000DF
:10025B00DFE0A3E07830F6800CE47827F608F68030
:10026B0004782B76FF782BE6FF22120E4C120E062B
:10027B007FF4120C49120026120E3CD2AFE4780A1E
:10028B00F6780BF6FD7F01120DCBE4FD7F02120D0C
:10029B00CB7F98120D8FC204C203C2059000FC12D3
:1002AB0005B1000000009001001205B10000000034
:1002BB009001041205B1000000009001081205B175
:1002CB0000000000E490010CF0A3F0782176010807
:1002DB00760308F608F608F608760A120E5820057B
:1002EB00030203E9C2057B017A0079007858E69096
:1002FB0000DEF07F0112004E900072E0FFA3E09051
:10030B00010ECFF0A3EFF0900074E0FFA3E090019B
:10031B000CCFF0A3EFF0900076E0FFA3E09000D6B7
:10032B00CFF0A3EFF0900078E0FFA3E09000D8CFE0
:10033B00F0A3EFF09000D6E0FCA3E0FDA3E0FEA35A
:10034B00E0FF9000FC1205A590007AE0FFA3E0907F
:10035B0000D6CFF0A3EFF090007CE0FFA3E090007D
:10036B00D8CFF0A3EFF09000D6E0FCA3E0FDA3E024
:10037B00FEA3E0FF9001001205A590007EE0FFA315
:10038B00E09000D6CFF0A3EFF0900080E0FFA3E069
:10039B009000D8CFF0A3EFF09000D6E0FCA3E0FDE7
:1003AB00A3E0FEA3E0FF9001041205A5900082E0FC
:1003BB00FFA3E09000D6CFF0A3EFF0900084E0FF16
:1003CB00A3E09000D8CFF0A3EFF09000D6E0FCA311
:1003DB00E0FDA3E0FEA3E0FF9001081205A53002AB
:1003EB0002C202300030C200780A06E6FF3395E005
:1003FB00FEC3EF940AEE648094804005E4F6FD8022
:10040B0010780AE6FF3395E0FEEF64054E70077D2A
:10041B00017F01120DCB300129C20178DB7C007DFD
:10042B00017B007A0079217E007F061205237F0174
:10043B0012060E780C06E6C3940A74809480400270
:10044B00E4F643E1100202E9E709F608DFFA804619
:10045B00E709F208DFFA803E88828C83E709F0A374
:10046B00DFFA8032E309F608DFFA8078E309F20855
:10047B00DFFA807088828C83E309F0A3DFFA806453
:10048B0089828A83E0A3F608DFFA805889828A83FF
:10049B00E0A3F208DFFA804C80D280FA80C680D4C9
:1004AB00806980F28033801080A680EA809A80A8D1
:1004BB0080DA80E280CA803389828A83ECFAE49303
:1004CB00A3C8C582C8CCC583CCF0A3C8C582C8CC91
:1004DB00C583CCDFE9DEE7800D89828A83E493A3B1
:1004EB00F608DFF9ECFAA9F0EDFB2289828A83EC9E
:1004FB00FAE0A3C8C582C8CCC583CCF0A3C8C5821B
:10050B00C8CCC583CCDFEADEE880DB89828A83E452
:10051B0093A3F208DFF980CC88F0EF60010E4E60F8
:10052B00C388F0ED2402B4040050B9F582EB240229
:10053B00B4040050AF23234582239004A373BB0163
:10054B000689828A83E0225002E722BBFE02E32265
:10055B0089828A83E49322BB010CE58229F582E52B
:10056B00833AF583E0225006E92582F8E622BBFEAA
:10057B0006E92582F8E222E58229F582E5833AF540
:10058B0083E49322A3F8E0C5F025F0F0E582158211
:10059B0070021583E0C838F0E822ECF0A3EDF0A36D
:1005AB00EEF0A3EFF022A8828583F0D083D08212E5
:1005BB0005C81205C81205C81205C8E473E493A355
:1005CB00C583C5F0C583C8C582C8F0A3C583C5F074
:1005DB00C583C8C582C822EF4E6012EF60010EEDD5
:1005EB00BB010B89828A83F0A3DFFCDEFA2289F040
:1005FB005007F709DFFCA9F022BBFEFCF309DFFC77
:10060B00A9F0229000DAEFF0E49000E1F0A3F0788B
:10061B00E57C007D017BFF7A107966FE7F14120565
:10062B0023E49000E1F0A3F09000DBE0FF9000E109
:10063B00E475F00112058FFC74E525F0F58274006A
:10064B003CF583EFF09000DCE0FF9000E1E475F007
:10065B000112058FFC74E525F0F58274003CF583DF
:10066B00EFF09000DAE06402700F9000DDE0FEA383
:10067B00E0FF7808A60608A6079000DDE0FFA3E0E0
:10068B009000E3CFF0A3EFF09000E3E0FF9000E1E8
:10069B00E475F00112058FFC74E525F0F58274000A
:1006AB003CF583EFF09000E4E0FF9000E1E475F09F
:1006BB000112058FFC74E525F0F58274003CF5837F
:1006CB00EFF09000DFE0FFA3E09000E3CFF0A3EFAB
:1006DB00F09000E3E0FF9000E1E475F00112058F6C
:1006EB00FC74E525F0F58274003CF583EFF0900087
:1006FB00E4E0FF9000E1E475F00112058FFC74E576
:10070B0025F0F58274003CF583EFF07B017A0079DC
:10071B00E59000E1E0FCA3E0FD120CA69000E3EEF7
:10072B00F0A3EFF09000E3E0FF9000E1E475F0013F
:10073B0012058FFC74E525F0F58274003CF583EF10
:10074B00F09000E4E0FF9000E1E475F00112058FFA
:10075B00FC74E525F0F58274003CF583EFF0900016
:10076B00DAE0640260329000E1A3E07856F67E0096
:10077B007F267D007B017A00794C1205E27856E6E4
:10078B00FF7E00784C7C007D017B017A0079E512BD
:10079B000523E4785BF6D2049000E1E0FEA3E0FFD2
:1007AB0022900110EFF0E4784BF608F608F608F605
:1007BB0008F608F608F608F608F608F608F6EF90BD
:1007CB000114600BE0FEA3E0FF784DA606800DE060
:1007DB00FEA3E024FCFFEE34FF784DF608A60712CB
:1007EB000549784FF6740129F9E43AFAE47852F6A0
:1007FB0008F6784BF6087601784DE6FE08E6FF78AA
:10080B004BE6FC08E6C39FEE6480F8EC64809850DE
:10081B006B120549FF784FF6740129F9E43AFAEFA8
:10082B00C3943A4007E624C908F68007784FE624BC
:10083B00D008F6120549FF784FF6740129F9E43A0E
:10084B00FAEFC3943A4005E624C98005784FE624B5
:10085B00D07851F67850E675F010A4FF08E67C00CE
:10086B002FFFEC35F0FE7853EF26F618EE36F678C0
:10087B004C740226F618E436F6020803785208E6A2
:10088B00F40408F6900110E06009E4784FF6785410
:10089B00E68056120549FF784FF6740129F9E43AC0
:1008AB00FAEFC3943A4007E624C908F68007784F5D
:1008BB00E624D008F6120549FF784FF6EFC3943AB9
:1008CB004005E624C98005784FE624D07851F678A8
:1008DB0050E6C454F0FF08E62FFF7855F618E6B53E
:1008EB000706784F76018004E4784FF6784FE6FFE1
:1008FB0022C0E0C0F0C083C082C0D075D010783861
:10090B007600087600C2CF784306E61870010630F1
:10091B00043C784A06794AE7C37857964030784AC0
:10092B007600785BE6FF7856965021744C2FF58253
:10093B00E43400F583E07838F608A6AC75AC001803
:10094B00E6F59908E6F5AC785B068002C204300345
:10095B0030785D06E618700106D3785DE6940618CC
:10096B00E69400401CC203785AE67858F6FF7E00E6
:10097B0078007C007D017B017A007926120523D259
:10098B0005784506E6C3940A74809480403D760052
:10099B007849E61618700116D202784106E6C39420
:1009AB000A748094804024760018E616187001169D
:1009BB00D200784406E6C3940A74809480400C7687
:1009CB00007847E61618700116D201D0D0D082D02D
:1009DB0083D0F0D0E032010C00C102C100C1010193
:1009EB00450001410001440002480000023F0000A5
:1009FB0002460000014A0002420000C104C103C1CB
:100A0B0005015700015900015E00015B0001560012
:100A1B006026004C000000000000000000000000F9
:100A2B0000000000000000000000000000000000BB
:100A3B0000000000000000000000025C00000158F4
:100A4B0000015A00015F0060260026000000000034
:100A5B00000000000000000000000000000000008B
:100A6B00000000000000000000000000000000007B
:100A7B0000602600000000000000000000000000E5
:100A8B00000000000000000000000000000000005B
:100A9B000000000000000000000000010A00010B34
:100AAB000041011600086100000000000000000179
:100ABB00600000787FE4F6D8FD758168020B0502B3
:100ACB000275E493A3F8E493A34003F68001F208C4
:100ADB00DFF48029E493A3F85407240CC8C333C470
:100AEB00540F4420C8834004F456800146F6DFE4DB
:100AFB00800B01020408102040809009E1E47E0184
:100B0B009360BCA3FF543F30E509541FFEE493A34D
:100B1B0060010ECF54C025E060A840B8E493A3FA5F
:100B2B00E493A3F8E493A3C8C582C8CAC583CAF0EB
:100B3B00A3C8C582C8CAC583CADFE9DEE780BEC0C9
:100B4B00E0C0F0C083C082C0D075D000C000C0012F
:100B5B00C002C003C004C005C006C007783A7600C7
:100B6B00087600309840C298A6AC75AC0018A699D0
:100B7B0008E6F5AC2003157E007F267D007B017A0D
:100B8B000079261205E2785A7600D203783AE6FF0E
:100B9B00785AE6062426F582E43400F583EFF078E4
:100BAB005C7600087600309902C299D007D006D047
:100BBB0005D004D003D002D001D000D0D0D082D049
:100BCB0083D0F0D0E0329000E1EBF0A3EAF0A3E9A0
:100BDB00F0A3ECF0A3EDF09000E1E0FBA3E0FAA3AF
:100BEB00E0F9ED24FEFDEC34FFFC120CA67831A6E7
:100BFB000608A6079000E1E0FBA3E0FAA3E0F9A347
:100C0B00E0FCA3E0FD24FEF58274FF3CF5831205A6
:100C1B0062FE74FF2DF58274FF3CF5831205627C36
:100C2B00002400FFEC3EFE7833F608EFF67832E650
:100C3B00B5070818E6B506037F01227F002243891A
:100C4B002075A3008F8B8F8D759850438780EFFD98
:100C5B007C00D394A07480948050067857760C80D7
:100C6B0035D3ED94E8EC6480948050067857760683
:100C7B008024D3ED94F4EC648094805006785776FE
:100C8B00038013D3ED94F8EC648094807857500470
:100C9B00760280027601D28ED2AC229000F9EBF074
:100CAB00A3EAF0A3E9F0783576FF0876FFED1DAEE9
:100CBB000470011C4E602E9000F9E0FBA3E475F06C
:100CCB000112058FA9F0FA1205497835667937F7C5
:100CDB007837E6FF900E669318667935F7EF900F2D
:100CEB006693F680C87835E6FE08E6FDEDFF22C078
:100CFB00E0C0D075D010783C7600087600087600FE
:100D0B0053C4F7E5C65403FEADC57C00E42D18F6BD
:100D1B00EC3E18F6E6FE08E6FF7860E625E0246177
:100D2B00F8A61608A617786006E6C3940474809498
:100D3B00804002760053C4F87860E642C4D0D0D02D
:100D4B00E032EE703EEF24FE601714601B14601F40
:100D5B0014602314602724057029EC4D24FF929610
:100D6B0022EC4D24FF929722EC4D24FF92A222EC11
:100D7B004D24FF92A322EC4D24FF92A422EC4D2490
:100D8B00FF92A522EF30E004D2E98002C2E9EF30F6
:100D9B00E104D2E88002C2E8EF30E204D2B580026F
:100DAB00C2B5EF30E304D2B48002C2B4EF30E40436
:100DBB00D2B38002C2B3EF30E703D2B222C2B22267
:100DCB00EFFB3395E0FAEB64014A7016EDF58233D5
:100DDB0095E0F583E582640145837004C2F88002D7
:100DEB00D2F8EB64024A7012AF05EF3395E0FEEFD9
:100DFB0064014E7003C2F922D2F922E4F5C8F5C999
:100E0B004387809000DA74F8F0A374CDF09000DA89
:100E1B00E0F5CBA3E0F5CAC2CFD2CAD2BDD2AD2288
:100E2B00E47842F608F6C37843E69F18E69E40F650
:100E3B002275920F75C370E4F5BB75C48043AD0288
:100E4B002243C7D07D547F407E0002002E43970182
:100E5B0075E1D743E1202243C4082200C181400140
:100E6B00C0804101C0804100C1814001C080410070
:100E7B00C1814000C1814001C0804101C08041005F
:100E8B00C1814000C1814001C0804100C18140014E
:100E9B00C0804101C0804100C1814001C080410040
:100EAB00C1814000C1814001C0804100C18140012E
:100EBB00C0804101C0804100C1814000C18140011F
:100ECB00C0804101C0804100C1814001C080410010
:100EDB00C1814000C1814001C0804101C0804100FF
:100EEB00C1814000C1814001C0804100C1814001EE
:100EFB00C0804101C0804100C1814000C1814001DF
:100F0B00C0804101C0804100C1814001C0804100CF
:100F1B00C1814000C1814001C0804100C1814001BD
:100F2B00C0804101C0804100C1814001C0804100AF
:100F3B00C1814000C1814001C0804101C08041009E
:100F4B00C1814000C1814001C0804100C18140018D
:100F5B00C0804101C0804100C1814000C0C101C3BC
:100F6B000302C2C60607C705C5C404CC0C0DCD0FC2
:100F7B00CFCE0E0ACACB0BC90908C8D81819D91B72
:100F8B00DBDA1A1EDEDF1FDD1D1CDC14D4D515D7F2
:100F9B001716D6D21213D311D1D010F03031F13342
:100FAB00F3F23236F6F737F53534F43CFCFD3DFF02
:100FBB003F3EFEFA3A3BFB39F9F83828E8E929EBD2
:100FCB002B2AEAEE2E2FEF2DEDEC2CE42425E52732
:100FDB00E7E62622E2E323E12120E0A06061A163A2
:100FEB00A3A26266A6A767A56564A46CACAD6DAF42
:100FFB006F6EAEAA6A6BAB69A9A86878B8B979BBF2
:10100B007B7ABABE7E7FBF7DBDBC7CB47475B57771
:10101B00B7B67672B2B373B17170B0509091519301
:10102B0053529296565797559594549C5C5D9D5F81
:10103B009F9E5E5A9A9B5B99595898884849894B51
:10104B008B8A4A4E8E8F4F8D4D4C8C4484854587B1
:10105B004746868242438341818040000000000066
:0F106B0000000000000000000000000000000076
:00000001FF
