:10000000020B34C204E4785BF67856A605AF05EF20
:100010003395E0FE784C7C007D01120737D2042234
:07002300020BC075B440227E
:10002B00020972AB07AA0675E78075E504EAF5E3EA
:0F003B00AF038FE4AF058FE275E64675E6B92295
:10004B00020D709000DAEFF0A3EBF0A3EAF0A3E956
:10005B00F0E47827F608F608F608F608F608F6082E
:10006B00F608F608F608F678E17C007D017BFF7A4E
:10007B001079DCFE7F281207379000DAE0640278F3
:10008B002D76019000DBE0FBA3E0FAA3E0F9A3E0FF
:10009B00FD7C00120C47EF3395E0FE7827F608EF56
:1000AB00F64E70030204649000DBE0FBA3E0FAA3BE
:1000BB00E0F912075D782D666003020464FE7F642D
:1000CB00FD7B017A0079E11207F6782B7601782D0A
:1000DB00E69000E1F09000DBE0FBA3E0FAA3E0F98F
:1000EB00782BE606F582758300120776782CF6E6F8
:1000FB00FF9000E2F018E606F58275830012077692
:10010B009000DFF0782BE606F582758300120776F8
:10011B009000E0F09000DFE0FCA3E0782EA604084E
:10012B00F6782BE606F5827583001207769000DFD2
:10013B00F0782BE606F5827583001207769000E0C7
:10014B00F09000DFE0A3E07830F6782976000876AF
:10015B000278277600087601EF24FE70030203D0A5
:10016B0014602014601D1470030203D0147003027A
:10017B00022E24F670030202C7240F60030203CA87
:10018B000203D07830E625E0FF78290806E61886CA
:10019B00047001061424E1F58274003CF583EFF042
:1001AB00E47827F608F67830E6FF7827E6FC08E6D1
:1001BB00FDC39FEC940040030203D0ED782F26FF84
:1001CB00EC1836FEEF25E0FFEE33FE74722FF5824E
:1001DB0074003EF583E0FFA3E09000DFCFF0A3EFC8
:1001EB00F09000DFE0FF78290806E618860470011E
:1001FB00061424E1F58274003CF583EFF09000E0E7
:10020B00E0FF78290806E61886047001061424E13D
:10021B00F58274003CF583EFF0782806E6187086BB
:10022B000680837830E6FD7C0018E625E0FF18E6B3
:10023B0033FE74722FF58274003EF583ECF0A3ED60
:10024B00F0E6FF08E69000DFCFF0A3EFF09000DFC1
:10025B00E0FF78290806E61886027001061424E1EF
:10026B00F58274003AF583EFF09000E0E0FF782917
:10027B000806E61886027001061424E1F582740064
:10028B003AF583EFF09000DFECF0A3EDF09000DF98
:10029B00E0FF78290806E61886047001061424E1AD
:1002AB00F58274003CF583EFF09000E0E0FF7829D5
:1002BB000806E61886047001060203BC782B06E4D8
:1002CB007827F608F67830E6FFC37828E69F18E61D
:1002DB009400505F9000DBE0FBA3E0FAA3E0F97819
:1002EB002BE606F5827583001207769000DFF07817
:1002FB002BE606F5827583001207769000E0F090EE
:10030B0000DFE0FCA3E0FD7928E7782F26FF19E753
:10031B001836FEEF25E0FFEE33FE74722FF5827474
:10032B00003EF583ECF0A3EDF0782806E618709507
:10033B00068092782EE6FF08E69000DFCFF0A3EF61
:10034B00F09000DFE0FF78290806E61886047001BC
:10035B00061424E1F58274003CF583EFF09000E085
:10036B00E0FF78290806E61886047001061424E1DC
:10037B00F58274003CF583EFF07830E6FF9000DFF8
:10038B00E4F0A3EFF09000DFE0FF78290806E61811
:10039B0086047001061424E1F58274003CF583EFAA
:1003AB00F09000E0E0FF78290806E618860470015B
:1003BB00061424E1F58274003CF583EFF08006E42B
:1003CB007827F608F67828E6184670030204687B4F
:1003DB00017A0079E17829E6FC08E6FD120D1C9004
:1003EB0000DFEEF0A3EFF09000DFE0FF78290806C6
:1003FB00E61886047001061424E1F58274003CF5BE
:10040B0083EFF09000E0E0FF78290806E6188604F9
:10041B007001061424E1F58274003CF583EFF09033
:10042B0000DAE064026036782AE67856F67E007FC2
:10043B00267D007B017A00794C1207F67856E6FF91
:10044B007E00784C7C007D017B017A0079E11207FC
:10045B0037E4785BF6D2048004782B76FF782BE6B2
:10046B00FF22120EC2120E7C7FF4120CBF1200265A
:10047B00120EB2D2AFE4780AF6780BF6FD7F0112BA
:10048B000E41E4FD7F02120E417F98120E05C2044D
:10049B00C203C2059001111207C5428C00009001E6
:1004AB00151207C541F000009001191207C53FC096
:1004BB00000090011D1207C53F000000900121E4D0
:1004CB00F0A3743FF0E4A3F0A3F078217601087653
:1004DB000308F608F608F608760A120ECE20050376
:1004EB00020615C2059001111207C5428C0000903F
:1004FB0001151207C541F000009001191207C53F05
:10050B00C0000090011D1207C53F000000900121A3
:10051B00E4F0A3743FF0E4A3F0A3F0900072F0A317
:10052B00F0900121E0FFA3E0900074CFF0A3EFF077
:10053B00900111E0FCA3E0FDA3E0FEA3E0FF90001F
:10054B00D61207B99000D6E0FFA3E0900076CFF06B
:10055B00A3EFF09000D8E0FFA3E0900078CFF0A3DA
:10056B00EFF0900115E0FCA3E0FDA3E0FEA3E0FF9C
:10057B009000D61207B99000D6E0FFA3E090007A66
:10058B00CFF0A3EFF09000D8E0FFA3E090007CCF7A
:10059B00F0A3EFF0900119E0FCA3E0FDA3E0FEA3B4
:1005AB00E0FF9000D61207B99000D6E0FFA3E090D1
:1005BB00007ECFF0A3EFF09000D8E0FFA3E0900017
:1005CB0080CFF0A3EFF090011DE0FCA3E0FDA3E0D2
:1005DB00FEA3E0FF9000D61207B99000D6E0FFA370
:1005EB00E0900082CFF0A3EFF09000D8E0FFA3E003
:1005FB00900084CFF0A3EFF07B017A007926785A34
:10060B00E69000DEF07F0112004E300202C2023093
:10061B000030C200780A06E6FF3395E0FEC3EF9484
:10062B000AEE648094804005E4F6FD8010780AE6BB
:10063B00FF3395E0FEEF64054E70077D017F0112DD
:10064B000E41300111C201780C06E6C3940A748086
:10065B0094804002E4F643E1100204E8E709F6084F
:10066B00DFFA8046E709F208DFFA803E88828C8346
:10067B00E709F0A3DFFA8032E309F608DFFA8078A6
:10068B00E309F208DFFA807088828C83E309F0A318
:10069B00DFFA806489828A83E0A3F608DFFA805848
:1006AB0089828A83E0A3F208DFFA804C80D280FA39
:1006BB0080C680D4806980F28033801080A680EA67
:1006CB00809A80A880DA80E280CA803389828A830C
:1006DB00ECFAE493A3C8C582C8CCC583CCF0A3C8FD
:1006EB00C582C8CCC583CCDFE9DEE7800D89828A61
:1006FB0083E493A3F608DFF9ECFAA9F0EDFB22896A
:10070B00828A83ECFAE0A3C8C582C8CCC583CCF03F
:10071B00A3C8C582C8CCC583CCDFEADEE880DB8901
:10072B00828A83E493A3F208DFF980CC88F0EF6030
:10073B00010E4E60C388F0ED2402B4040050B9F5ED
:10074B0082EB2402B4040050AF232345822390068E
:10075B00B773BB010689828A83E0225002E722BB72
:10076B00FE02E32289828A83E49322BB010CE58299
:10077B0029F582E5833AF583E0225006E92582F8D4
:10078B00E622BBFE06E92582F8E222E58229F58204
:10079B00E5833AF583E49322A3F8E0C5F025F0F066
:1007AB00E582158270021583E0C838F0E822ECF080
:1007BB00A3EDF0A3EEF0A3EFF022A8828583F0D097
:1007CB0083D0821207DC1207DC1207DC1207DCE491
:1007DB0073E493A3C583C5F0C583C8C582C8F0A3D2
:1007EB00C583C5F0C583C8C582C822EF4E6012EF22
:1007FB0060010EEDBB010B89828A83F0A3DFFCDE67
:10080B00FA2289F05007F709DFFCA9F022BBFEFCA6
:10081B00F309DFFCA9F022900125EFF0E4784BF609
:10082B0008F608F608F608F608F608F608F608F6CD
:10083B0008F608F6EF900129600BE0FEA3E0FF78C5
:10084B004DA606800DE0FEA3E024FCFFEE34FF78FE
:10085B004DF608A60712075D784FF6740129F9E4E7
:10086B003AFAE47852F608F6784BF6087601784DAA
:10087B00E6FE08E6FF784BE6FC08E6C39FEE6480D5
:10088B00F8EC648098506B12075DFF784FF674019B
:10089B0029F9E43AFAEFC3943A4007E624C908F67B
:1008AB008007784FE624D008F612075DFF784FF6E5
:1008BB00740129F9E43AFAEFC3943A4005E624C9E6
:1008CB008005784FE624D07851F67850E675F01015
:1008DB00A4FF08E67C002FFFEC35F0FE7853EF26E3
:1008EB00F618EE36F6784C740226F618E436F60255
:1008FB000879785208E6F40408F6900125E06009BF
:10090B00E4784FF67854E6805612075DFF784FF681
:10091B00740129F9E43AFAEFC3943A4007E624C983
:10092B0008F68007784FE624D008F612075DFF78AB
:10093B004FF6EFC3943A4005E624C98005784FE69D
:10094B0024D07851F67850E6C454F0FF08E62FFF18
:10095B007855F618E6B50706784F76018004E478EB
:10096B004FF6784FE6FF22C0E0C0F0C083C082C0D4
:10097B00D075D01078387600087600C2CF78430651
:10098B00E61870010630043C784A06794AE7C378CA
:10099B0057964030784A7600785BE6FF785696504B
:1009AB0021744C2FF582E43400F583E07838F60897
:1009BB00A6AC75AC0018E6F59908E6F5AC785B06C5
:1009CB008002C204300330785D06E618700106D34E
:1009DB00785DE6940618E69400401CC203785AE64C
:1009EB007858F6FF7E0078007C007D017B017A0051
:1009FB007926120737D205784506E6C3940A748028
:100A0B009480403D76007849E61618700116D202A4
:100A1B00784106E6C3940A748094804024760018CB
:100A2B00E61618700116D200784406E6C3940A74D1
:100A3B00809480400C76007847E61618700116D229
:100A4B0001D0D0D082D083D0F0D0E032010C00C1E5
:100A5B0002C100C1010145000141000144000248EF
:100A6B000000023F000002460000014A0002420063
:100A7B0000C104C103C105015700015900015E000B
:100A8B00015B000156006026004C000000000000D6
:100A9B00000000000000000000000000000000004B
:100AAB00000000000000000000000000000000003B
:100ABB00025C0000015800015A00015F0060260033
:100ACB0026000000000000000000000000000000F5
:100ADB00000000000000000000000000000000000B
:100AEB000000000000000060260000000000000075
:100AFB0000000000000000000000000000000000EB
:100B0B0000000000000000000000000000000000DA
:100B1B0000010A00010B0041012B000861000000DD
:100B2B00000000000001600000787FE4F6D8FD753E
:100B3B008168020B7B02046DE493A3F8E493A3405A
:100B4B0003F68001F208DFF48029E493A3F854073D
:100B5B00240CC8C333C4540F4420C8834004F45638
:100B6B00800146F6DFE4800B010204081020408070
:100B7B00900A57E47E019360BCA3FF543F30E50914
:100B8B00541FFEE493A360010ECF54C025E060A870
:100B9B0040B8E493A3FAE493A3F8E493A3C8C58203
:100BAB00C8CAC583CAF0A3C8C582C8CAC583CADF71
:100BBB00E9DEE780BEC0E0C0F0C083C082C0D07564
:100BCB00D000C000C001C002C003C004C005C006F5
:100BDB00C007783A7600087600309840C298A6ACE9
:100BEB0075AC0018A69908E6F5AC2003157E007FBE
:100BFB00267D007B017A0079261207F6785A76005B
:100C0B00D203783AE6FF785AE6062426F582E434D6
:100C1B0000F583EFF0785C7600087600309902C21D
:100C2B0099D007D006D005D004D003D002D001D084
:100C3B0000D0D0D082D083D0F0D0E032900109EB3D
:100C4B00F0A3EAF0A3E9F0A3ECF0A3EDF090010917
:100C5B00E0FBA3E0FAA3E0F9ED24FEFDEC34FFFC8E
:100C6B00120D1C7831A60608A607900109E0FBA31C
:100C7B00E0FAA3E0F9A3E0FCA3E0FD24FEF5827407
:100C8B00FF3CF583120776FE74FF2DF58274FF3C53
:100C9B00F5831207767C002400FFEC3EFE7833F6DA
:100CAB0008EFF67832E6B5070818E6B506037F01BC
:100CBB00227F002243892075A3008F8B8F8D75981F
:100CCB0050438780EFFD7C00D394A07480948050B8
:100CDB00067857760C8035D3ED94E8EC64809480DD
:100CEB005006785776068024D3ED94F4EC64809408
:100CFB00805006785776038013D3ED94F8EC64801C
:100D0B00948078575004760280027601D28ED2AC52
:100D1B002290010EEBF0A3EAF0A3E9F0783576FF11
:100D2B000876FFED1DAE0470011C4E602E90010E77
:100D3B00E0FBA3E475F0011207A3A9F0FA12075D1B
:100D4B007835667937F77837E6FF900EDC931866BF
:100D5B007935F7EF900FDC93F680C87835E6FE080F
:100D6B00E6FDEDFF22C0E0C0D075D010783C7600D8
:100D7B0008760008760053C4F7E5C65403FEADC5EC
:100D8B007C00E42D18F6EC3E18F6E6FE08E6FF783C
:100D9B0060E625E02461F8A61608A617786006E63B
:100DAB00C39404748094804002760053C4F8786036
:100DBB00E642C4D0D0D0E032EE703EEF24FE601796
:100DCB0014601B14601F1460231460272405702902
:100DDB00EC4D24FF929622EC4D24FF929722EC4D82
:100DEB0024FF92A222EC4D24FF92A322EC4D24FF70
:100DFB0092A422EC4D24FF92A522EF30E004D2E91D
:100E0B008002C2E9EF30E104D2E88002C2E8EF30A1
:100E1B00E204D2B58002C2B5EF30E304D2B4800253
:100E2B00C2B4EF30E404D2B38002C2B3EF30E703B5
:100E3B00D2B222C2B222EFFB3395E0FAEB64014A45
:100E4B007016EDF5823395E0F583E58264014583F9
:100E5B007004C2F88002D2F8EB64024A7012AF053C
:100E6B00EF3395E0FEEF64014E7003C2F922D2F925
:100E7B0022E4F5C8F5C94387809000DA74F8F0A333
:100E8B0074CDF09000DAE0F5CBA3E0F5CAC2CFD277
:100E9B00CAD2BDD2AD22E47842F608F6C37843E657
:100EAB009F18E69E40F62275920F75C370E4F5BB52
:100EBB0075C48043AD022243C7D07D547F407E0072
:100ECB0002002E43970175E1D743E1202243C4086A
:100EDB002200C1814001C0804101C0804100C1811D
:100EEB004001C0804100C1814000C1814001C080F0
:100EFB004101C0804100C1814000C1814001C080DF
:100F0B004100C1814001C0804101C0804100C181CD
:100F1B004001C0804100C1814000C1814001C080BF
:100F2B004100C1814001C0804101C0804100C181AD
:100F3B004000C1814001C0804101C0804100C1819E
:100F4B004001C0804100C1814000C1814001C0808F
:100F5B004101C0804100C1814000C1814001C0807E
:100F6B004100C1814001C0804101C0804100C1816D
:100F7B004000C1814001C0804101C0804100C1815E
:100F8B004001C0804100C1814000C1814001C0804F
:100F9B004100C1814001C0804101C0804100C1813D
:100FAB004001C0804100C1814000C1814001C0802F
:100FBB004101C0804100C1814000C1814001C0801E
:100FCB004100C1814001C0804101C0804100C1810D
:100FDB004000C0C101C30302C2C60607C705C5C492
:100FEB0004CC0C0DCD0FCFCE0E0ACACB0BC9090802
:100FFB00C8D81819D91BDBDA1A1EDEDF1FDD1D1C42
:10100B00DC14D4D515D71716D6D21213D311D1D0D1
:10101B0010F03031F133F3F23236F6F737F5353471
:10102B00F43CFCFD3DFF3F3EFEFA3A3BFB39F9F841
:10103B003828E8E929EB2B2AEAEE2E2FEF2DEDECE1
:10104B002CE42425E527E7E62622E2E323E1212011
:10105B00E0A06061A163A3A26266A6A767A5656411
:10106B00A46CACAD6DAF6F6EAEAA6A6BAB69A9A881
:10107B006878B8B979BB7B7ABABE7E7FBF7DBDBCC1
:10108B007CB47475B577B7B67672B2B373B1717051
:10109B00B0509091519353529296565797559594B1
:1010AB00549C5C5D9D5F9F9E5E5A9A9B5B995958C1
:1010BB0098884849894B8B8A4A4E8E8F4F8D4D4C61
:1010CB008C44848545874746868242438341818091
:1010DB0040000000000000000000000000000000C5
:1010EB0000000000000000000000000000000000F5
:0910FB00000000000000000000EC
:00000001FF
